:020000040800F2
:10000000E01200205D0100083114000815130008FB
:100010002D140008310300084931000800000000D9
:10002000000000000000000000000000E91A0008C5
:10003000B50E000800000000C5160008291E0008C3
:1000400077010008770100087701000877010008B0
:1000500077010008770100087701000877010008A0
:100060007701000877010008770100087701000890
:100070007701000877010008770100087701000880
:100080007701000877010008770100087701000870
:100090007330000877010008770100087701000835
:1000A00077010008711F0008770100087701000838
:1000B0008D1F0008A51F00087701000877010008C0
:1000C0007701000877010008770100087701000830
:1000D0007701000877010008770100087701000820
:1000E0007701000877010008770100087701000810
:1000F0007701000877010008770100087701000800
:1001000077010008770100087701000877010008EF
:1001100077010008B1260008770100087701000880
:1001200077010008770100087701000877010008CF
:1001300000000000770100087B300008770100080C
:1001400077010008DFF810D000F01AF800480047E7
:1001500019320008AFF30080E01200200648804703
:1001600006480047FEE7FEE7FEE7FEE7FEE7FEE79C
:10017000FEE7FEE7FEE7FEE7111F00084501000865
:10018000064C074D06E0E06840F0010394E80700E4
:1001900098471034AC42F6D3FFF7D8FFB4320008CA
:1001A000D432000810B558480078012800D110BD9D
:1001B00056480078C0F3800000287DD1544800885C
:1001C000642813D1002405E05248005D52490855C7
:1001D000601CC4B2092CF7D3082050494870084667
:1001E000407888704E494F4802F006FF4848018821
:1001F0000088401C464A1080B1F5C87F1BDD0020F6
:1002000011460880002405E04748005D4249085532
:10021000601CC4B20F2CF7D30E204049487008462A
:10022000407888703E493F4802F0E6FE3F4800783B
:10023000401C3E490870394800793B49097888429A
:1002400036D136480078C0F3001088B32F480078C4
:10025000C0F3800060BB002427E03048001D005D33
:100260003149095D88420CD02848007820F004000C
:10027000264908704FF496712848001D00F010FEC2
:1002800015E00E2C0FD12148007820F00400001D4D
:100290001E4908704FF496712048001D00F000FEC2
:1002A000002022490870601CC4B20F2CD5D300BFB7
:1002B0001E480078032800E01FE00DDD1348007899
:1002C00020F00400114908700846007820F0020070
:1002D00008700120887003E000200C498880887035
:1002E0000A4881888088401C084A9080B1F5C87F00
:1002F00007DD00201146888003E000200349888044
:10030000887000BF53E70000008000203C090020F7
:1003100002010020AA00002058060020C407002087
:10032000800001070050004056000020000100201E
:1003300000BFFEE730B5024600200023146824F019
:1003400002041460146824F00104641C146000E0CA
:100350005B1C546804F001041CB94FF6FF74A342FF
:10036000F6D1546804F001040CB9002074E00C7854
:10037000012C05D1146824F040044034146003E0DB
:10038000146824F0400414604C78012C05D11468E2
:1003900024F020042034146003E0146824F02004C6
:1003A00014608C78012C05D1146824F010041034EA
:1003B000146003E0146824F010041460CC78012C5D
:1003C00005D1146824F008040834146003E01468AC
:1003D00024F0080414600C79012C05D1146824F071
:1003E0000404241D146003E0146824F00404146061
:1003F000D46924F04044D461D4694D7944EA8574C9
:10040000D4618D79D46965F31964D461CD79D469E7
:1004100065F31344D4610D7AD46965F31654D4613D
:100420004C89641ED56964F30905D561146824F00C
:1004300001041460002300E05B1C546804F0010414
:100440001CB14FF6FF74A342F6D1546804F00104C6
:100450000CB1002000E0012030BD10B5D0F8002222
:1004600022F00102521CC0F80022D0F81C220C78A5
:100470000123A3409A43C0F81C228A7BD2B9D0F84A
:100480000C220C780123A3409A43C0F80C228A88DE
:100490000B8942EA03430C7800F5107242F83430BD
:1004A0004A88CB8842EA03430C7800F5107202EBCD
:1004B000C40253608A7B012A1AD1D0F80C220C782E
:1004C0000123A3401A43C0F80C228A884B8842EAD1
:1004D00003430C7800F5107242F834300A89CB8857
:1004E00042EA03430C7800F5107202EBC402536039
:1004F0004A7B42B9D0F804220C780123A3409A43E6
:10050000C0F8042207E0D0F804220C780123A340AD
:100510001A43C0F804220A7B3AB9D0F814220C78A6
:100520000123A3409A43C0F814220A7B012A07D171
:10053000D0F814220C780123A3401A43C0F81422E7
:100540004A89012A07D1D0F81C220C780123A34044
:100550001A43C0F81C22D0F8002222F00102C0F891
:10056000002210BD0021017041708170C1700171C5
:10057000417181710321C171022101720121418107
:10058000704742698A434261704742690A43426147
:100590007047000008B5012001F072F9042001F055
:1005A0006FF9082001F06CF9102001F069F9402082
:1005B00001F066F94FF4536000F046FE4FF48850A6
:1005C000ADF8000088208DF8030003208DF80200AC
:1005D0006946124800F0EAFD4FF40060ADF80000F3
:1005E00048208DF8030069460C4800F0DFFD4FF409
:1005F0008040ADF8000084208DF8030003208DF8C2
:1006000002006946064800F0D1FD4FF4C060ADF825
:1006100000006946014800F0C9FD08BD000801401E
:10062000000C014010B50C200B49088000204860E8
:1006300088600A4800F016F8082009490875642007
:100640000861002008620821054880F848106421EC
:1006500041640021416510BD5C0100200064004040
:100660006801002030B587B005460C464FF0007099
:1006700001F0F6F8284600F059F804A8FFF772FFD9
:1006800000208DF8100001208DF8110000208DF859
:1006900012008DF8130001208DF8140000208DF851
:1006A00015008DF8160004208DF8170001208DF834
:1006B00018002088ADF81A0004A92846FFF73AFE72
:1006C00000208DF800008DF80D0001208DF80E003F
:1006D0006068000CADF80200A08880B2ADF804009C
:1006E000A068000CADF80600208980B2ADF80800C3
:1006F00000208DF80C000120ADF80A00694628465C
:10070000FFF7ABFE02212846FFF73BFF012000F078
:100710006FF907B030BD024619B9D06800F0030088
:100720007047106900F00300FAE7000010B50446B6
:100730000B48844208D14FF0007001F099F84FF057
:10074000007001F07DF80AE00648844207D14FF0BE
:10075000806001F08DF84FF0806001F071F810BDFD
:10076000006400400068004030B50346012003F5F6
:10077000D87404EB0114246804F0040494609468B1
:1007800054B903F5D87404EB0114246840F2FF75E2
:1007900005EA5454146009E003F5D87404EB01141D
:1007A00024686FF0604505EAD404546003F5D874FA
:1007B00004EB01142468C4F34004D46003F5D87436
:1007C00004EB0114646804F00F04147403F5D87486
:1007D00004EB01146468240A547603F5D87404EB1E
:1007E0000114A468547403F5D87404EB0114A468CC
:1007F000250A957403F5D87404EB0114A468250C3C
:10080000D57403F5D87404EB0114A468250E15758E
:1008100003F5D87404EB0114E468547503F5D87437
:1008200004EB0114E468250A957503F5D87404EB0C
:100830000114E468250CD57503F5D87404EB011494
:10084000E468250E157631B9DC6824F020042034E4
:10085000DC60002005E01C6924F0200420341C61C9
:10086000002030BD10B502460023906800F0806083
:10087000B0F1806F00D111E0906800F00060B0F13D
:10088000006F01D1012309E0906800F08050B0F1C1
:10089000805F01D1022301E0032010BD02F5C0708A
:1008A00000EB0310006800F0010402F5C07000EBDB
:1008B000031004600868B0F5006F04D2086848604F
:1008C0000020087303E00868886004200873087B30
:1008D00078B9487B8C8840EA445002F5C07404EB38
:1008E00003142468204302F5C07404EB0314206051
:1008F00010E0087B8C6840EAC4004C7B204302F582
:10090000C07404EB03142468204302F5C07404EBA4
:1009100003142060087D00F00F00087502F5C07018
:1009200000EB0310406820F00F0402F5C07000EBEC
:100930000310446002F5C07000EB031040680C7DAA
:10094000204302F5C07404EB03146060087E0406C3
:10095000C87D44EA0044887D44EA00204C7D204361
:1009600002F5C07404EB0314A060087F0406C87E7F
:1009700044EA0044887E44EA00204C7E204302F58D
:10098000C07404EB0314E06002F5C07000EB0310C8
:10099000006840F0010402F5C07000EB0310046031
:1009A00018467AE730B502460B4600201AE080214F
:1009B00015E000F080042CB14406200E07244440CA
:1009C000E0B201E04406200E14780C4014B1072474
:1009D0004440E0B20C4601EBD475C5F34701002951
:1009E000E7D1521C1C1EA3F10103E0D130BD000071
:1009F00010B50446012C04D10102054800F050FC5A
:100A000004E04FF48071024800F04CFC10BD00007F
:100A1000000801401F48C0894FF6FF71884205DA7F
:100A20001C48C089401C1B49C88103E04FF6FF7079
:100A30001849C8811748006A4FF6FF71884205D2ED
:100A40001448006A401C1349086203E04FF6FF7027
:100A500010490862104840884FF6FF71884205DA55
:100A60000D484088401C0C49488003E04FF6FF7059
:100A700009494880094800884FF6FF71884205DA25
:100A800006480088401C0549088002E00020034910
:100A900008807047300600204A0000201C0000201B
:100AA00070B500210948FFF736FE05460BE0084AFD
:100AB00000210648FFF758FE044614B9044800F028
:100AC00009F8681EC5B2002DF1D170BD0064004068
:100AD0000C01002070B50446A068002875D140F2D2
:100AE000FF712068884216D1A07CEB490871E07C38
:100AF0000870207D4870607D8870607C00280ADD69
:100B00000220E6490873084690F8240020F0080007
:100B1000083081F8240040F235712068884201D104
:100B2000012000E00020DD4991F82410C1F380018C
:100B30000840002849D00020D8490862607C01099B
:100B4000D64890F8240061F30710D44981F82400B6
:100B5000012000F057FCD14890F82400000920B192
:100B6000012879D0022870D1FAE0607C00F00F00F3
:100B7000CA490880A07CC849087108460079342811
:100B800004D0362832D0372864D130E0E07CC24926
:100B90004871207D00098872207D00F00F004872A6
:100BA0000020C86008610846407A897A0844042811
:100BB0000CDDBA4890F8250020F00100401CB74930
:100BC00081F82500062008730FE063E1607CB349DB
:100BD0004880607DB0490870A07D4870E07D8870D5
:100BE000207EC8700020AD49886033E032E0217D6E
:100BF000A9488171E17CC17180797F280BD10920DE
:100C0000A6490873084690F8250020F030001030FF
:100C100081F825001DE0A0488079B8B99F48806818
:100C20009D49C968884203D305209C49087310E098
:100C300009209A490873084690F8250020F03000F2
:100C4000203081F8250004E006E022E109209349E4
:100C5000087300BF00BF1CE1E07C8F4908710846A3
:100C60000079342802D0362878D12CE0A07C617C31
:100C700001F00F0100EB012088490880207D8649A2
:100C80004871607D00098872607D00F00F00487235
:100C9000A07D81F82000E17D7F4880F82110217E31
:100CA00080F8221003207D49888200208860084651
:100CB00090F8250020F00801784880F825100820D9
:100CC000764908734AE0A07C617C01F00F0100EBDB
:100CD0000120724908800846008840F2024188429B
:100CE00003DD07206D49087338E06C488088FF28D1
:100CF0000FD1607C88BB207D6849888008200873FC
:100D0000084690F8250020F00801644880F8251076
:100D100023E0207D61498988401A01281DD1207D6A
:100D20005E49888008200873084690F8250020F066
:100D300008015A4880F82510607D574981F8200045
:100D4000A17D554880F82110E17D80F82210217E98
:100D500080F8231004205149888200BF00BF98E02A
:100D60004E4890F82500C0F3C00000B991E04A4811
:100D70000079342802D0362853D153E0607C00F04B
:100D80000F0601251AE04548818A0088C01E81426D
:100D900006DB00214148828A3F48203081540FE021
:100DA00004F11100415D3D48828A808A401C3B4B22
:100DB0009882394820308154681CC5B2082DE2DB86
:100DC00000BF3648818A0088C01E814229DB324834
:100DD000407A3149897A08443049898A884205D164
:100DE0002E48818A0088C01E81420BDA2B4890F879
:100DF000250020F00100401C284981F8250006202C
:100E000008730EE025480088C01E2449488003204E
:100E10000873084690F8240020F00100401C81F877
:100E2000240034E0607C00F00F06012513E004F19B
:100E30001100415D1948828A808A401C174B9882B4
:100E40001548203081541846808AB0F5806F00DB49
:100E500003E0681CC5B2082DE9DB00BF0F48818A9A
:100E60000088801E814211DB04200C49087308466B
:100E700090F8250020F00400001D81F825000846A8
:100E800081680088801E08440449886000BF00BF54
:100E900000BF00BF70BD000004020020300600202B
:100EA000024604E000231370521C4B1E99B2002925
:100EB000F8DC70477047000070B505460C46002608
:100EC0000B480078042811D1284600F0D5FDA04237
:100ED0000BD02146284600F0B5F8054908700846B1
:100EE0000078042802D1012600E00126304670BDBA
:100EF0001400002070B504460D46002672B600F0BE
:100F0000F9F81A48854200D90546B4F1006F01D2BC
:100F10004FF0006416480560342000F047F80020C8
:100F2000144908600EE0134909684FF4006202FB9F
:100F3000014000F055F8104908700E480068401C48
:100F40000C4908600B4800684FF4006101FB004049
:100F500007490968884203D2074800780428E2D08C
:100F600000F066F862B60126304670BD0000040845
:100F7000080000200C0000201400002010B5002400
:100F800072B600F0B7F8342000F010F8054800F011
:100F900027F80549087000F04BF862B60124204696
:100FA00010BD000000F80308140000200149C860CB
:100FB00070470000002002400349096860F3020105
:100FC000014A116070470000002002400348006899
:100FD00020F01000103001490860704700200240E6
:100FE00030B5044604254FF4302000F08FF8054654
:100FF000042D18D10D48006920F00200801C0B4917
:10100000086108464461006920F0400040300861F2
:101010004FF4302000F07AF805460448006920F0CB
:10102000020002490861284630BD0000002002404D
:101030000348006920F08000803001490861704752
:1010400000200240F8B506460C460425002000901A
:10105000012002F0DDF84FF4302000F057F805468B
:10106000042D25D11548006920F00100401C1349CA
:10107000086134804FF4302000F048F80546042D14
:1010800010D1B01C0090200C009908804FF4302043
:1010900000F03CF805460948006920F001000749C6
:1010A000086105E00548006920F001000349086176
:1010B000002002F0ADF82846F8BD000000200240F4
:1010C00004200B49C96801F0010109B101200EE0BB
:1010D0000749C968C1F3800109B1022007E004494A
:1010E000C968C1F3001109B1032000E00420704772
:1010F00000200240024803494860034848607047A6
:101100002301674500200240AB89EFCD00B50246C0
:101110000423FFF7D5FF034603E0FFF7D1FF0346A3
:10112000521E012B01D1002AF7D102B9052318461E
:1011300000BD000070B5002572B6FFF7DBFF4FF46D
:101140008024A4F5A030C00A144908603420FFF7B9
:101150002DFF00201249086010E011490968114A6A
:10116000131403FB0120FFF73BFF0F49087000F049
:10117000C3FA0B480068401C094908600848006829
:1011800006490968884203D2074800780428E4D059
:10119000FFF74EFF62B60125284670BD080000200B
:1011A0000C0000200040000814000020F0B5CF78AB
:1011B00007F00F06CF7807F080070FB18F783E4316
:1011C0000F78E7B104680023012215E00F8817406B
:1011D0007FB19D000F27AF40BC4306FA05F73C43A3
:1011E000CF78282F01D1426103E0CF78482F00D17A
:1011F00002615F1CFBB25200082BE7DB04600F8822
:1012000007F47F47F7B1446808235A0117E00F88B5
:1012100017408FB1A3F10807BD000F27AF40BC43B3
:1012200006FA05F73C43CF78282F01D1426103E04D
:10123000CF78482F00D102615F1CFBB25200102B07
:10124000E5DB4460F0BD0000F0B5014601F00F029F
:10125000C1F30315C1F30723C1F3034414B10F4EC7
:10126000F06901E00D4E70681826B6EB112F08D119
:1012700020F07060094E766826F07066074F7E6039
:1012800001E040F070609D40A8439A40104314B1C3
:10129000024EF06101E0014E7060F0BD00000140BF
:1012A00041617047016170470AB1016100E041612D
:1012B0007047000008B5012000F0E2FA102000F0AD
:1012C000DFFA202000F0DCFA4FF48050ADF8000087
:1012D00088208DF8030003208DF8020069460C4831
:1012E000FFF764FF0420ADF800008DF80300032031
:1012F0008DF8020069460648FFF758FF4FF480104A
:1013000000F096FA4FF4801000F0AAFA08BD000031
:101310000010014000BFFEE710B500F04BF801F0EF
:101320007DFD10BD10B572B61A4800F0A5FB04464D
:1013300062B619480068A04206D0FFF71FFE1648A3
:101340000168144801F02AFF00F058FB72B6002033
:1013500008E04FF0FF32114941F82020104941F8D0
:101360002020401C0828F4D30E480F49086062B6BC
:101370000C4840680D490860084600680C49086040
:101380000849086880F3088800BF0948006880475A
:1013900010BD000000F80308D001002080E100E04B
:1013A00080E200E00040000808ED00E0240000209A
:1013B000200000201FB5FFF77DFF4FF4E1300090C3
:1013C0000020ADF80400ADF80600ADF80800ADF857
:1013D0000C000C208DF80A006946084801F0A8FDB1
:1013E000064801F002FE0649044801F005FE02220B
:1013F0000021352000F030F81FBD000000500040F3
:101400002000010510B50446012C05D101228103FD
:101410000548FFF749FF05E000224FF480410248EC
:10142000FFF742FF10BD0000000C014000BFFEE7C7
:101430007047000002490143024A116070470000F2
:101440000000FA050CED00E010B500221146142052
:1014500000F002F810BD00002DE9F04305460F46EC
:1014600090462348006800F4E069B9F5A06F13D0F6
:1014700006DCB9F5407F15D0B9F5806F15D10EE0C7
:10148000B9F5C06F05D0B9F5E06F0ED10023042483
:1014900012E0012303240FE0022302240CE00323C3
:1014A000012409E00423002406E04FF4E060FFF784
:1014B000C1FF0023042400BF00BFC3F10403C4F133
:1014C000040407FA03F60F20204100EA080006434F
:1014D00036010848465505F01F0101208840691172
:1014E000890001F1E021C1F80001BDE8F0830000AE
:1014F0000CED00E000E400E070B50025002640217E
:101500006A48FFF7CDFC694EB32069490880084658
:10151000B0F900200121304601F051FE0646654831
:101520000078C0F3C00018B10420624981F80305B7
:10153000604890F803055E4908800846B0F900202D
:101540000121304601F03BFE06465A4890F803055B
:10155000062866D006DC01280BD0032823D00428F7
:101560007ED13AE008287CD066287BD07F28F7D14E
:1015700080E008204D49487000204D490880084609
:10158000B0F900200421304601F019FE0646002083
:10159000474908800846B0F900200421304601F090
:1015A0000EFE064668E0434890F80505404908806D
:1015B0000846B0F900200121304601F000FE064641
:1015C0004AF6AA203A4908800846B0F900200221CC
:1015D000304601F0F4FD06464EE0364890F804052A
:1015E000334908800846B0F900200121304601F057
:1015F000E6FD064600202E4908800846B0F9002086
:101600000421304601F0DBFD064600202849088011
:101610000846B0F900200421304601F0D0FD06460E
:101620002AE024480078C0F3401021490880084689
:10163000B0F900200121304601F0C1FD06461D48E9
:10164000D0F88805000E194988731A48D0F8880523
:10165000000CC8731748B0F88805000A087402E047
:1016600009E005E005E0134890F88805487403E0B8
:1016700002E001E000E000BF00BF0025012404E01B
:101680000A48005D0544601CC4B2132CF8DB280A2C
:1016900006498874CD74142007494870084640787C
:1016A00088700649064801F0A7FC70BD5806002066
:1016B000F400002048090020C40700208000010732
:1016C000005000407047000010B50848007800F056
:1016D000010010B1002006494880054840880549AE
:1016E000884202DD0020FFF78DFE10BD4809002072
:1016F000EE000020407E050010B540F2356015492F
:101700000860052048757421124881751248408888
:10171000C8281EDB00201049488010488069000E50
:101720000C49C8750D488069010C0A4801760B48C0
:10173000008B010A074841760848017E05488176FA
:1017400000F004FA032804DA04488069401C0349C5
:10175000886110BD680100204A000020300600208A
:101760000349496860F30711014A5160704700005E
:10177000001002400349496860F30A21014A5160A0
:1017800070470000001002400349496860F3CD2112
:10179000014A516070470000001002401349096877
:1017A00021F48031114A11601146096821F4802129
:1017B0001160012807D11146096821F4803101F533
:1017C0008031116010E002280ED10849096821F427
:1017D000802101F58021054A11601146096821F434
:1017E000803101F580311160704700000010024027
:1017F000094A526861F39542074B5A601A4652688B
:1018000060F310425A604308034A526863F351423E
:10181000014B5A60704700000010024003494968BC
:1018200060F30101014A516070470000001002405E
:101830000249C9698143014AD161704700100240E1
:10184000024909698143014A116170470010024051
:10185000024949690143014A516170470010024041
:101860000249C9690143014AD16170470010024031
:10187000024909690143014A1161704700100240A1
:10188000024989690143014A916170470010024091
:101890000448006820F4002000F500200149086099
:1018A00070470000001002400448006820F080707B
:1018B00000F180700149086070470000001002408C
:1018C0007FB509A30FCB8DE80F0000F03DF8064669
:1018D00009484068C0F303101DF8004026FA04F5DB
:1018E000284604B070BD00000000000000000000A9
:1018F000010203040607080900100240FCB5044673
:101900000D460EA103C9CDE90001FFF7D9FF074637
:1019100044B10C484068C0F302201DF8006027FA6B
:1019200006F0206045B107484068C0F3C2201DF8AA
:10193000006027FA06F02860FCBD000000000000EF
:101940000102030400100240154B5B6803F0030022
:1019500020B1012804D002281DD103E011481CE069
:1019600010481AE00E4B5B68C3F383439A1C0C4B80
:101970005B68C3F3004151B10A4B02FB03F0084B13
:101980005B68C3F340438B4204D1400802E0064B3E
:1019900002FB03F001E0034800BF00BF70470000F6
:1019A0000010024000127A0000093D000248406821
:1019B000C0F3810070470000001002400146012082
:1019C00000FA01F30A0A22B1012A05D0022A09D13C
:1019D00005E00948026806E00748026A03E0064895
:1019E000426A00E000BF00BF02EA030008B1012024
:1019F00070470020FCE7000000100240104800681B
:101A000020F00100401C0E490860084640680D495E
:101A100008400B494860084600680B4908400849DF
:101A200008600846006820F4802008600846406886
:101A300020F47F0048604FF41F008860704700006A
:101A4000001002400000FFF8FFFFF6FE08B500207E
:101A5000009009E007480068C0F3404008B1012049
:101A600008BD0098401C00900098B0F5A04FF1D33D
:101A70000020F5E7001002400146086870470000AA
:101A800001480088704700004E00002001460022F7
:101A90000A60002005E0002301F115021354421CE6
:101AA000D0B20828F7DB704710B50D48002204E0DB
:101AB000002300F8013B531CDAB2282AF8D3094866
:101AC000002104E0002300F8013B4B1C99B240F2D6
:101AD0002C439942F6D30023014C236210BD000031
:101AE00030060020040200207047000007480088EC
:101AF0004FF6FF71884203DB08460449088004E082
:101B000002480088401C0149088070474E000020B0
:101B100070B505460C4640F235600A490860082059
:101B20000875032048757F2106488175C5750476C0
:101B3000FF2141768176C176017701460248FEF7A2
:101B400091FE70BD280100200064004010B50446DD
:101B50000F4920680860207D0875607D4875A17D6B
:101B60000B488175E17DC175217E0176617E4176EC
:101B7000A17E8176E17EC176217F0177006808B978
:101B8000FF2010BD02490348FEF76CFEF9E7000094
:101B9000280100200064004010B51948B0F8700119
:101BA00001282BDD00201649A1F87001FEF7FAFA92
:101BB00014480078C0F3801038B11248007820F043
:101BC000400010490870FFF797FC0D48007800F0BE
:101BD000010050B10A48007820F00100084908705F
:101BE00000F040FF002008490880074800F010FF7F
:101BF00000F0ECFE01F042FAFFF766FD10BD0000B8
:101C0000C407002048090020F200002010B5FFF7AB
:101C1000F5FE0120FFF7C2FD26E0FFF717FF0128C0
:101C200022D1FFF7D3F90220FFF7C6F90720FFF70B
:101C300097FD0320FFF7A8FD0420FFF79BFD0A2175
:101C40000120FFF7D5FDFFF72FFE00BF1920FFF79A
:101C5000B5FE0028FAD00220FFF7E0FD00BFFFF735
:101C6000A5FE0228FBD100E0D7E700BF10BD0000B1
:101C700038B56748007830B1012861D002286DD0AE
:101C8000032818D189E06348007955280BD16148B1
:101C90000078012807D15F484078AA2803D15D4821
:101CA0008078102808D05B4908797F21FFF730FF42
:101CB000012059490873A8E0584804788DF801407C
:101CC0000A2094FBF0F100FB1140C4B204EB440085
:101CD0005349085C8DF8000004EB44000844407848
:101CE0008DF8020004EB4400084480788DF803006E
:101CF00004216846FEF756FE044684F0330440F2A1
:101D00003560484908600720087506204875414835
:101D100000794030C1B243488175C4759DF8001008
:101D200001769DF8011041769DF8021081769DF8AC
:101D30000310C1760120364908700020488064E015
:101D40003848FFF703FF032807DA022030490870FC
:101D5000002048803348FFF799FE56E02C48408821
:101D6000B0F5487F09DB4FF44870294948800020CE
:101D7000087001202849087347E026480079552853
:101D800009D124480078AA2805D1032020490870E9
:101D90000020488000E038E000BF40F23560214973
:101DA0000860032008750220487595211D4881753B
:101DB000AA21C175FF21017641768176C17601772E
:101DC000FFF7C4FE03281FDA00201149087048807D
:101DD0001448FFF75BFE104890F8240020F008003C
:101DE0000D4981F8240003200873084690F8240068
:101DF00020F00400001D81F82400084690F824001B
:101E000020F0010081F8240000BF00BF38BD0000B1
:101E10004A00002004020020300600201C000020A0
:101E20002C000020680100207047000008B53448ED
:101E3000006820F4803000F58030314908600020CF
:101E4000009008E02E480068C0F3404000B106E072
:101E50000098401C00900098B0F5A04FF2D300BF4E
:101E600027480068C0F34040002848D02548006853
:101E700020F010001030234908600846006820F068
:101E80000700801C08601E48406820F0F0001C49D4
:101E900048600846406820F4605048600846406842
:101EA00020F4E06000F5806048600846406820F457
:101EB000803000F5803048600846406820F470109B
:101EC00000F5E01048600846006820F0807000F1DE
:101ED0008070086000BF0A480068C0F340600028B6
:101EE000F9D00748406820F00300801C044948608E
:101EF00000BF03484068C0F381000228F9D108BD43
:101F0000001002400020024010B5FFF78FFF10BD07
:101F100010B51348006820F00100401C104908600B
:101F2000084640680F4908400D4948600846006867
:101F30000D4908400A4908600846006820F48020DE
:101F400008600846406820F4FE0048604FF41F0017
:101F50008860FFF7D9FF4FF000600449086010BDAA
:101F6000001002400000FFF8FFFFF6FE08ED00E061
:101F700010B50121044800F0A3F8012803D1012184
:101F8000014800F049F810BD002C014010B50121B6
:101F9000880700F095F8012803D10121800700F09F
:101FA0003BF810BD10B50121074800F089F8012861
:101FB00009D1FFF79BFDFEF72DFD00F087FF012102
:101FC000014800F029F810BD000400401CB50220B3
:101FD000FFF746FC00208DF801008DF800005F201F
:101FE000ADF8040041F28830ADF8020000208DF811
:101FF00006006946074800F013F80121054800F083
:102000005BF8012200211D20FFF726FA014800F0AD
:102010004DF81CBD00040040CA4302617047000037
:1020200010B51B4B98420ED01A4B98420BD0B0F112
:10203000804F08D0184B984205D0184B984202D0D8
:10204000174B984207D103689AB240F28F331A4077
:102050000B781A430260134B984207D0124B9842F8
:1020600004D04C78036864F3092303604B88C3628F
:102070008B888362064B984202D0064B984201D16E
:102080008B790363436923F001035B1C436110BD3B
:10209000002C0140003401400004004000080040D2
:1020A000000C00400010004000140040016821F0C6
:1020B0000101491C01607047C2680A43C260704751
:1020C00002461069084020B1D068084008B10120DC
:1020D00070470020FCE70000F8B5FFF7D1FC0228AC
:1020E00070DB01F033F8FB48007B0B282AD2DFE8D5
:1020F00000F006123942FDFCFBFAF9F8F70072B65F
:10210000F548FFF7B9FC054662B6F44805600120C2
:10211000F049087300BFF148407818B1EF484078A3
:10212000FF2810D1ED48007801280CD1EC484088F8
:10213000B0F5487F06DB0120E8494870FFF762F9F7
:10214000FFF7F0F8ABE2E5484078012808D1E34812
:102150000078012804D1FFF755F9FFF7E3F800E014
:102160009DE29CE2DB4890F82400C0F3C00008B177
:10217000FFF77EFD93E2DA484088B0F5C87F07DBC1
:102180004FF4C870D64948800020D249087386E2CF
:10219000D04890F8240000F0010000287ED00020F4
:1021A000CF49488040F23560CE4908600720087565
:1021B00006204875CC4800794030C1B2C9488175C5
:1021C000002410E06CE2C8482030005DC649897ADE
:1021D000091B491EC9008840C34909690844C2490E
:1021E0000861601CC4B2C048807AA042EBDC12E0F7
:1021F000BD48807ABC49497A0844001B401EC10092
:10220000B9482030005D8840B749C9680844B649DC
:10221000C860601CC4B2B448407AB349897A0844A3
:10222000A042E5DC0026B048C068B0490968884291
:1022300046D8AD48006900F1006000F58040AC4927
:1022400088423DD3A8480069AA49884238D2402133
:10225000A448C175A5480178A248C176A348008862
:10226000010AA0488176A1480068010C9D4841768A
:102270009E480068000E9B4908760846FFF766FCFA
:10228000032843DA9748FFF701FC0A2091490873B5
:10229000084690F8250020F0020000E036E0801C9F
:1022A00081F8250000208E4948808A4890F8240053
:1022B00020F00100874981F824000020886125E092
:1022C00013257F218748C175C576290A8176290C97
:1022D0004176280E834908760846FFF737FC06E06A
:1022E00015E046E124E107E1CAE092E040E003287E
:1022F0000CDA7C48FFF7CAFB0020764908730846D1
:1023000090F8240020F0040081F82400C7E171480F
:1023100090F82500C0F3400048B3FEF72FFE0128D7
:1023200025D1FEF707FF012821D140F235606D4924
:102330000860062008750520487574216948817574
:10234000AA21C175017641768176FFF7FFFB03284C
:102350000DDA604890F8250020F002015D4880F811
:10236000251000205E4948805E48FFF78FFB96E10C
:10237000584890F82500C0F38000E0B340F2356083
:1023800058490860052008750420487556480079AA
:102390004030C1B253488175BB21C1754D480179A8
:1023A000504801764B488068C0F387214D484176FC
:1023B000484989684E4A1144A1F5806052144A493F
:1023C000203100F0C9FEB0B94648FFF7BFFB032833
:1023D0001EDA4448FFF75AFB3E4890F8250020F0EB
:1023E00004013C4880F825100088811E3E482030BA
:1023F000FEF7D8FA00E00BE08DF800003548007FCA
:102400008DF8010002216846FEF7CCFA3149C86117
:1024100045E140F235603349086004200875032027
:102420004875314800794030C1B22E4881752E4838
:10243000C1792C48C1752C4881792A4801762548F4
:1024400080682949C968884219D32648FFF77EFB6E
:10245000032814DA2348FFF719FB1E4890F82400DC
:1024600020F00200801C1B4981F8240000208860B5
:102470001D49C860012019490870164908730EE10A
:10248000144890F8250000F0010010B340F23560C8
:102490001449086004200875032048757F211148FD
:1024A0008175114801790F48C17513210176FFF735
:1024B0004DFB03280DDA074890F8250020F00101B4
:1024C000044880F825100020024908730548FFF7EA
:1024D000DDFAE4E03006002000F80308D001002017
:1024E0004A0000206801002004020020280000208B
:1024F000004000080000030840F2356069490860A8
:1025000004200875032048757F2166488175664858
:1025100001796448C17513210176FFF717FB032881
:1025200005DA0020614908735E48FFF7AFFAB6E0AC
:1025300040F235605B490860062008753020487518
:102540000021584881750A21C175FFF7FFFA032859
:102550000EDA0020554908735248FFF797FA53489E
:1025600090F8250020F008000830504981F8250037
:1025700095E04E4890F82500C0F3011040BB40F2B2
:1025800035604849086004200875032048754648AE
:1025900000794030C1B2434881754348C179414810
:1025A000C175424890F82500C0F30110401C3D4918
:1025B00008760846FFF7CAFA03286FDA00203B497D
:1025C00008733848FFF762FA0020FEF71BFF65E04A
:1025D000364890F82500C0F30110012829D140F2B7
:1025E00035603049086004200875032048752E487E
:1025F00000794030C1B22B4881752B48C1792948F8
:10260000C1757F210176FFF7A1FA032846DA002081
:10261000264908732348FFF739FA244890F8250023
:1026200020F03001214880F825100020FEF7EAFE56
:1026300034E01E4890F82500C0F3011002282DD187
:1026400040F235601749086004200875032048757A
:10265000154800794030C1B2124881751248C179DD
:102660001048C175114890F82500C0F301110D48BC
:102670000176FFF76BFA032810DA00200B49087384
:102680000848FFF703FA094890F8250020F03001C8
:10269000064880F825100020FEF7B4FE00BF00BFFA
:1026A000F8BD000068010020040200203006002070
:1026B00070B50024B549B64800F0B2FCC0B1B349CA
:1026C000B34800F02DFCB3488078B24A5278801AA3
:1026D000B14A115CAE4800F0C7FCAE484078401EDD
:1026E000C0B2AC49487018B9A849A94800F068FCC4
:1026F000AA49A74800F094FC18B1A849A44800F0E2
:102700000FFCA749A24800F08BFC00287CD0A4490C
:102710009F4800F005FC9E4800F0A1FCA14908700C
:1027200008460078A0490978884205D09D4800787D
:102730009D49897888422BD1964800799A49097831
:10274000884225D0934800799749897888421FD0DC
:1027500096480078C0F38000D0B9924800788D493F
:10276000087101209249088000208A49C1F874014B
:102770000120904908708748007820F010008549B2
:1027800008708A48007820F020008849087035E0F9
:1027900088480078012831D1824801787D48001DA1
:1027A000834A1288815482480088401C80490880EE
:1027B000084600883F2801DB002008807C4800880C
:1027C000801E7449091D085C7B49097B884215D12C
:1027D00077480088401E6F49091D085C7649497B8F
:1027E00088420BD1002072490880724908706948FC
:1027F000007820F0100010306649087065480078B5
:1028000000F0010008B170BDBDE066480078B22854
:1028100023D160480079B2281FD0624800785D4912
:1028200008710120C8700020C1F8740101206349BB
:1028300008705E48007820F0200020305B49087066
:102840000846007820F00400001D08700846007853
:1028500020F00200801C087095E05848007801289C
:10286000FAD15248007820F0200020304F490870FB
:102870000846007820F00400001D08700846007823
:1028800020F00200801C0870464801784148C27858
:10289000001D8154001FC07801286FDB3D4840793E
:1028A000474981F80305084690F80305032801D03D
:1028B000142400E0CE243748C178E01E81420ED1B6
:1028C000012509E03348001D405D3E490988084460
:1028D0003C490880681CC5B2E01EA842F2DA2D48C7
:1028E000C178601E814249DBA01E2A49091D085C8F
:1028F00035490880084600884FF6FF7101EA00203C
:1029000031490880601E2349091D085C2E49098849
:1029100008442D490880084600882A4909888842C9
:1029200015D1274890F80305032808D12448D0F88A
:1029300084052449098808442149C1F884051548BB
:10294000007820F00100401C124908700FE01C487C
:10295000007820F00800083019490870012081F83B
:1029600004054FF496710B48001DFEF799FA0020FC
:102970000849C870C1F87401124908800548C07838
:10298000401C0449C87000BF3DE7000080000107FB
:1029900000500040C40700205806002040000106F7
:1029A0002000010598060020520000203C0900206C
:1029B000060100200A010020560000200B01002023
:1029C0004809002008010020040100201CB5002057
:1029D000009001900B480078C0F3C0000A4948609D
:1029E0000848007800F00100886072B60748FFF7D9
:1029F00043F800900548001DFFF73EF8019062B6CD
:102A00001CBD000048090020D001002004F8030884
:102A10000021124A127802F001029AB103885A1C6E
:102A200002800F4A934218DD4FF47A7202800B4AFB
:102A3000127822F008020832084B1A70052283F837
:102A400004250AE000220280044A127822F00802DB
:102A5000024B1A70002283F80425704748090020B1
:102A6000A0860100FEB5002400250026E548007977
:102A7000B22871D1E448007820F040004030E249AB
:102A80000870E048407981F80305084690F803058E
:102A900006287DD006DC01280BD0032851D004285D
:102AA00077D1D3E0082875D0662874D07F28F7D175
:102AB00012E1D548007820F00100401CD24908708E
:102AC0000020D2490870CF4880790106CD48C079EE
:102AD00001EB0041CB48007A01EB0021C948407A64
:102AE0000844C949C1F88C05C648807A0106C54822
:102AF000C07A01EB0041C348007B01EB0021C148D3
:102B0000407B0844C049C1F890050020A1F80805A1
:102B100081F8050548700846007820F00800087024
:102B2000002081F80405C1F884050846007820F0EB
:102B30000400001D08700846007820F002000870AC
:102B4000D6E0B148007800F0010020B1AE4800782E
:102B5000C0F3C00008B1CBE0CBE0AB4890F805155E
:102B6000A8488079401E81420FD0A648807918B9C4
:102B7000A54890F8050540B1A34890F80505FF2841
:102B800059D1A0488079002855D19E48807903E02A
:102B900067E0ACE09EE09EE09B4981F8050599481E
:102BA000C07981F8060500243FE0201D9549091DE4
:102BB000095C9548B0F80825B0F80805401C924B10
:102BC000A3F80805181D8154001FB0F80805B0F5DA
:102BD000806F28DD00201946A1F808050846007816
:102BE00020F0100010300870002512E0201D41195F
:102BF0008448001D415C8448B0F80A25B0F80A05F5
:102C0000401C814BA3F80A0503F204408154681C60
:102C100085B27D4890F80605001BA842E6DC00203E
:102C2000794981F80605601C84B2774890F806055A
:102C3000A042BADC09E07448007820F008000830AF
:102C400071490870032081F8040551E06E4800784E
:102C500020F0080008306C490870072081F804054E
:102C600046E06948007820F00200801C6649087040
:102C70000846007820F010001030087008460078F0
:102C800020F0040008705F48807C01065D48C07C2D
:102C900001EB00415B48007D01EB00215948407D7C
:102CA00008445949C1F888050846D0F88805D1F884
:102CB0008415884207D15448007820F02000203045
:102CC0005149087005E05048007820F020004E4936
:102CD00008700DE00CE00BE04B48007820F0080095
:102CE000083049490870072081F8040500E000BF5A
:102CF00009E04548007820F0080008304249087093
:102D0000042081F80405002405E000213D48001D51
:102D10000155601C84B2B4F5967FF6DB3A48007822
:102D200000F0010038B33948007820BB0120374952
:102D30000870002000900190029072B63448FEF7AF
:102D40009BFE00903248001DFEF796FE0190304831
:102D50000830FEF791FE029062B60098401C48B120
:102D60000198401C30B10298401C18B129492848EC
:102D7000FEF7C0F800BF24480078C0F30010E8B3A5
:102D80002148007820F010001F4908704978204A37
:102D9000531403FB01201A461B49091D00F0DCF9FE
:102DA000064626B918484078401C174948704FF429
:102DB00080611548001DFEF773F800201249A1F844
:102DC000080500240EE01448015D0F48B0F80825FE
:102DD000B0F80805401C0C4BA3F80805181D8154D9
:102DE000601C84B20848B0F80A05A042EBDCFF2161
:102DF0000948FEF755F80020034900E001E0A1F87A
:102E00000A05FEBDC407002048090020F900002083
:102E10000040000800F803084C0D00200EB500200B
:102E200000900190029072B62548FEF725FE0090B2
:102E30002348001DFEF720FE019021480830FEF7D0
:102E40001BFE029062B61F49009808601E4909786F
:102E5000019860F3C3011C4801701A490298886008
:102E60000846806801282AD11748007820F0010020
:102E7000401C154908700020A1F8080581F80505D7
:102E800048700846007820F008000870002081F89B
:102E90000405C1F884050846007820F00400001DF0
:102EA00008700846007820F0020008700846007894
:102EB00020F0400040300870012081F803050EBD6D
:102EC00000F80308D0010020480900201248B0F89B
:102ED00070014FF6FF71884207DA0F48B0F87001B1
:102EE000401C0D49A1F8700104E04FF6FF700A493B
:102EF000A1F87001094840884FF6FF71884205DA51
:102F000006484088401C0549488003E04FF6FF70A2
:102F10000249488070470000C4070020EE000020EE
:102F20000A0E012303FA02F2036893430360704719
:102F30002DE9F84305460E46EC684EF6F3100440C2
:102F4000B07A31890843B18808430443EC602C69A6
:102F50004CF6FF700440F08804432C616C694FF616
:102F6000FF400440B08904436C611448854204D199
:102F700069460020FEF7C2FC03E000216846FEF728
:102F8000BDFC009800EBC00101EB00103168890026
:102F9000B0FBF1F86420B8FBF0F0040120096421D3
:102FA00001FB1087322000EB0710B0FBF1F000F0BE
:102FB0000F000443AC60BDE8F88300000038014016
:102FC0008BB2DA4301F4803313B1C3681340C3609A
:102FD00001F4003313B103691340036101F480234A
:102FE00013B14369134043617047C16821F4005134
:102FF00001F50051C16070478AB201F4803313B10A
:10300000C3681343C36001F4003313B1036913436E
:10301000036101F4802313B1436913434361704793
:1030200010B5024601F4803018B1D068084083B270
:1030300009E001F4003018B11069084083B202E0E1
:103040005069084083B20C0E012000FA04F41068A5
:10305000044014B10BB1012010BD0020FCE7014673
:103060004868C0F308007047426861F30802426094
:10307000704710B5FDF714FD10BD70473EB5002038
:1030800000900190029072B62548FEF7F5FC009082
:103090002348001DFEF7F0FC019021480830FEF7A0
:1030A000EBFC029062B60198002838D10298012802
:1030B00035D11C480078C0F3800000282FD11A4970
:1030C00088601A491648FDF715FF30221649144842
:1030D00000F042F8FEF792FC72B6002409E04FF0CF
:1030E000FF31134840F82410124840F82410601CA7
:1030F000C4B2082CF3DB10481049086062B60E48D1
:1031000040680F490860084600680E4908600A498F
:10311000086880F3088800BF0A48006880473EBD01
:1031200000F8030848090020D0010020000004082E
:1031300080E100E080E200E00040000808ED00E0EF
:10314000240000202000002000BFFEE700200149ED
:10315000088070474E0000202DE9F84304460D46D4
:1031600017464FF000080420009072B6FDF7C2FF2A
:10317000264606E030462968FDF764FF0090361DBC
:103180002D1DE019B04203D99DF800000428F1D0AC
:10319000FDF74EFF62B64046BDE8F88370B50446C1
:1031A0000D46002672B6FDF7A5FF29462046FDF71D
:1031B00083FE0646FDF73CFF62B6304670BD03460F
:1031C000012902D11A70581C7047022904D1100A33
:1031D00018705A70981CF7E7042908D1100E18705F
:1031E000100C5870100A9870DA70181DECE7184629
:1031F000EAE702E008C8121F08C1002AFAD17047A6
:103200007047002001E001C1121F002AFBD1704766
:1032100080F3108870470000FEF7F8FCFEF738FBDB
:10322000FDF7B8F9FDF7FEF9FEF7D0FE02210A48D6
:10323000FDF7ABF94020FEF70BFBFEF705F9012087
:10324000FEF7E0F805490868804704E000F008F858
:10325000024948688047F9E700640040AC32000842
:1032600010B5FEF739FF0E48006AB0F57A7F16D325
:10327000FEF71AFC01200B490860072008750120A1
:1032800048750221074881750021C1750176417694
:103290008176C176FEF75AFC0020FEF7B3F810BD28
:1032A0003006002068010020010200001913000808
:1032B000991B0008D4320008000000200C01000017
:1032C000F2310008E03300080C010020F87E000015
:1032D00002320008000000000000000000000000B2
:1032E00000000000000000000400000000000000DA
:1032F00000000000000000000000000000C002000C
:103300000255661234356356982146169845762242
:103310007798326090725070930506520733000020
:1033200000000000030441542B0041542B424C4543
:103330004D4F44453D300D0A0041542B424C454D04
:103340004F44453D390D0A0041542B424C454D4FE9
:1033500044453D3F0D0A0041542B534C4545503DDB
:10336000300D0A0041542B534C4545503D310D0A58
:103370000041542B534C4545503D320D0A004154F9
:103380002B5253540D0A0041542B4E414D453D0DD7
:103390000A002B4556454E543A424C455F434F4E2A
:1033A0004E45435445440D0A002B4556454E543A6C
:1033B000424C455F444953434F4E4E4543540D0ADA
:1033C00000000000000000000000000000000000FD
:1033D00000000000000000000000000000000000ED
:0400000508000145A9
:00000001FF
