:020000040800F2
:10400000D89400203DAA0208DD0C0108DF0C01084D
:10401000E30C0108E70C0108EB0C010800000000AC
:10402000000000000000000000000000EF0C01088C
:10403000F10C010800000000F30C0108F50C010868
:1040400057AA020857AA020857AA020857AA020844
:1040500057AA020857AA020857AA020857AA020834
:104060001D0D0108070D010857AA020857AA0208EA
:1040700057AA020857AA020857AA020857AA020814
:1040800057AA020857AA020857AA020857AA020804
:1040900057AA020857AA020857AA020857AA0208F4
:1040A00057AA0208E70A010857AA020857AA0208F5
:1040B000B10A0108BF0A010857AA020857AA020854
:1040C00057AA020857AA020857AA020857AA0208C4
:1040D00057AA020857AA020857AA0208818B0208A9
:1040E000330D0108FD0C010857AA020857AA02085F
:1040F00057AA020857AA02088F8C020857AA02087A
:1041000057AA020857AA020857AA020857AA020883
:1041100057AA02088B8B020857AA020857AA02085E
:1041200057AA020857AA020857AA020857AA020863
:104130000000000057AA020857AA020857AA02085E
:1041400057AA0208DFF810D027F04EF800480047C1
:10415000590D0108AFF30080D8940020704770B566
:104160000446624800784FF47A71B1FBF0F0604980
:104170000968B1FBF0F5284600F01FFE08B10120E8
:1041800070BD102C07D200222146501E00F09CFD6D
:104190005848046001E00120F2E70020F0E710B584
:1041A0005548006840F0100053490860032000F0B3
:1041B00079FD0F200CF0B4FBFFF7D0FF002010BDFD
:1041C000704710B54FF0FF304C49C86000200861BF
:1041D000401EC8600020C860FFF7F2FF002010BD3D
:1041E00047480068414909780844454908607047D4
:1041F0004348006870473F480068704770B5044600
:1042000000253A480078A04207D03A4800680CF0F0
:1042100087FB05460DB935480470284670BD334804
:104220000078704770B50446FFF7E2FF0646254662
:10423000681C10B12D480078054400BFFFF7D8FF77
:10424000801BA842FAD370BD4FF0E020006920F037
:1042500002004FF0E021086170474FF0E020006954
:1042600040F002004FF0E021086170472548704798
:1042700025480068000C704723480068C0F30B0015
:1042800070472248006870472048001D006870474A
:104290001E480830006870471B48406840F0010025
:1042A0001949486070471848406820F001001649D5
:1042B000486070471448406840F002001249486066
:1042C00070471148406820F002000F49486070476D
:1042D0000D48406840F004000B49486070470A48A8
:1042E000406820F00400084948607047080000203A
:1042F00020030020040000200020024000100240A3
:104300000000002000040101002004E0E8F7FF1F86
:1043100010B5FFF76DFF0446F748006840F0010054
:10432000F549086006E0FFF763FF001B022801D98A
:10433000032010BDF048006800F002000028F2D011
:10434000ED48006820F0F80040F08000EA4908607D
:10435000FFF74EFF04460020E749486008E0FFF7FA
:1043600047FF001B41F28831884201D90320E0E772
:10437000E148406800F00C000028F0D1DF48E04937
:104380000860E04800680CF0CBFA08B10120D0E7E3
:10439000FFF72EFF0446D848006820F08070D64909
:1043A000086006E0FFF724FF001B022801D9032064
:1043B000BFE7D148006800F000700028F2D1CE4974
:1043C0004860FFF715FF0446CB48006820F4102032
:1043D000C949086006E0FFF70BFF001B642801D9FC
:1043E0000320A6E7C448006800F400300028F2D19A
:1043F000C148006820F48020BF4908600846406A30
:1044000040F0807048620020886000BF91E708B5E6
:10441000BB490968C9084FF47A72B1FBF2F1414314
:10442000009100BF00BF00994A1E00920029F9D1F7
:1044300008BDF8B504460CB90120F8BD207800F09D
:104440000100002878D0AC48406800F00C00042837
:104450000CD0A948406800F00C00082811D1A648EB
:10446000406800F48030B0F5803F0AD1A24800686F
:1044700000F4003000285FD0606800285CD1012083
:10448000DBE700BF6068B0F5803F06D19A4800685E
:1044900040F480309849086028E0606858B9964830
:1044A000006820F48030944908600846006820F4D1
:1044B000802008601AE06068B0F5A02F0BD18E480C
:1044C000006840F480208C4908600846006840F489
:1044D000803008600AE08848006820F4803086490F
:1044E00008600846006820F48020086000BF60680B
:1044F00088B1FFF77DFE054606E0FFF779FE401B19
:10450000642801D9032098E77B48006800F4003054
:104510000028F2D010E0FFF76BFE054606E0FFF73B
:1045200067FE401B642801D9032086E772480068B3
:1045300000F400300028F2D1207800F002000228B8
:1045400057D16D48406800F00C0050B16A4840688F
:1045500000F00C00082818D16748406800F480304B
:1045600098B96548006800F0020020B12069012870
:1045700001D0012061E76048006820F0F80061691F
:1045800040EAC1005C49086033E02069E8B10120DD
:104590005D490860FFF72CFE054606E0FFF728FEA0
:1045A000401B022801D9032047E75348006800F068
:1045B00002000028F2D05048006820F0F80061693D
:1045C00040EAC1004C49086013E000204E490860F1
:1045D000FFF70EFE054606E0FFF70AFE401B022825
:1045E00001D9032029E74448006800F002000028B0
:1045F000F2D1207800F0080008282DD1A069B8B1C8
:10460000012042490860FFF7F3FD054606E0FFF789
:10461000EFFD401B022801D903200EE73648406A0F
:1046200000F002000028F2D00120FFF7F0FE13E0B6
:10463000002036490860FFF7DBFD054606E0FFF77E
:10464000D7FD401B022801D90320F6E62A48406A1C
:1046500000F002000028F2D1207800F004000428C5
:1046600079D100272448C06900F0805070B900BF9C
:104670002148C06940F080501F49C8610846C069A0
:1046800000F08050009000BF00BF01272048006864
:1046900000F48070B0B91E48006840F480701C4976
:1046A0000860FFF7A5FD054606E0FFF7A1FD401BEA
:1046B000642801D90320C0E61548006800F4807022
:1046C0000028F2D000BFE068012806D10A48006A3D
:1046D00040F001000849086236E0E068D0B90648B9
:1046E000006A20F00100044908620846006A20F0D0
:1046F0000400086228E000000010024000127A0066
:1047000020030020040000200000424280044242B6
:1047100000700040E06805280BD1F748006A40F0BF
:104720000400F54908620846006A40F0010008628A
:104730000AE0F148006A20F00100EF4908620846EB
:10474000006A20F00400086200BFE068A0B1FFF733
:104750004FFD054609E02BE0FFF74AFD401B41F203
:104760008831884201D9032067E6E348006A00F0F7
:1047700002000028F0D012E0FFF73AFD054608E0FD
:10478000FFF736FD401B41F28831884201D90320F2
:1047900053E6D948006A00F002000028F0D1012F4A
:1047A00005D1D548C06920F08050D349C86100BF09
:1047B000E069C8B3D048406800F00C00082857D022
:1047C000E06902283FD10020CC490866FFF710FDC0
:1047D000054606E0FFF70CFD401B022801D9032027
:1047E0002BE6C548006800F000700028F2D1206A6E
:1047F000B0F5803F07D1C048406820F40030A16880
:104800000843BD494860D4E908010843BA494968EA
:1048100021F474110843B84948600120B74908667B
:10482000FFF7E6FC054607E034E0FFF7E1FC401B3C
:10483000022801D9032000E6AF48006800F00070AC
:104840000028F2D026E00020AC490866FFF7D0FC33
:10485000054606E0FFF7CCFC401B022801D90320E7
:10486000EBE5A548006800F000700028F2D111E0E7
:10487000E069012800D1E0E59F48466806F48031F0
:10488000206A814204D106F47011606A814201D02D
:104890000120D2E50020D0E5F0B585B00FF2602C04
:1048A0009CE8E01001A8A0E8E01099A52D6800950B
:1048B000002100220023002400208F4D696801F0B0
:1048C0000C05F5B1042D02D0082D19D101E0914855
:1048D00019E001ADC1F38346AC5D01F4803555B1FB
:1048E000854D6D68C5F340451DF80520894D65432C
:1048F000B5FBF2F302E0884D04FB05F3184602E035
:1049000000BF844800BF00BF05B0F0BD70B50446CD
:104910000D460CB9012070BD8048006800F007000A
:10492000A8420ED27D48006820F0070028437B494A
:1049300008600846006800F00700A84201D0012086
:10494000E9E7207800F0020002281DD1207800F06D
:104950000400042805D16848406840F4E0606649D6
:104960004860207800F00800082805D162484068B7
:1049700040F46050604948605F48406820F0F000B3
:10498000A16808435C494860207800F0010078B3D2
:104990006068012806D15848006800F4003090B9DA
:1049A0000120B8E76068022806D15348006800F08B
:1049B000007040B90120AEE74F48006800F00200E7
:1049C00008B90120A7E74C48406820F0030061685F
:1049D000084349494860FFF70BFC064609E0FFF72A
:1049E00007FC801B41F28831884202D9032092E7FC
:1049F00007E04148406800F00C006168B0EB810FAF
:104A0000EDD14648006800F00700A8420ED943489F
:104A1000006820F007002843404908600846006805
:104A200000F00700A84201D0012074E7207800F0D0
:104A30000400042807D13048406820F4E060E168B1
:104A400008432D494860207800F00800082808D164
:104A50002948406820F46050216940EAC100264995
:104A60004860FFF719FF24494968C1F303112C4A34
:104A7000515CC8402B4908602B4800680BF050FF80
:104A8000002048E770B586B005460C461646002063
:104A9000029003900490059002200390032005905B
:104AA000002004904FF48070029000BF124880698B
:104AB00040F00400104988610846806900F0040055
:104AC000019000BF00BF02A9184802F0CDF80A48C3
:104AD000406820F0E06020430749486006B070BDA0
:104AE00001200649C864704700200449C864704723
:104AF0000C4800687047000000100240000042426D
:104B000002030405060708090A0B0C0D0E0F10100E
:104B10000102000000127A0000093D00002002405E
:104B200064CE020820030020040000200008014099
:104B300000B5FFF7DDFF50494968C1F302214F4A34
:104B4000515CC84000BD00B5FFF7D2FF4A49496833
:104B5000C1F3C221494A515CC84000BD0F21016028
:104B60004549096801F48021B1F5802F03D14FF444
:104B7000A02141600CE04049096801F48031B1F5A1
:104B8000803F03D14FF48031416001E0002141605A
:104B90003949496801F4003181603749096801F0F9
:104BA000010111B10121016101E0002101613249DE
:104BB0000968C1F3C40141612F49096A01F0040188
:104BC000042902D10521C16009E02B49096A01F0DD
:104BD000010111B10121C16001E00021C16026493C
:104BE000496A01F0010111B10121816101E0002157
:104BF00081612149096801F08071B1F1807F02D1A2
:104C00000221C16101E00121C1611B49496801F430
:104C1000803202621849496801F47012426270479A
:104C20000F220260144A526802F003024260124AE4
:104C3000526802F0F00282600F4A526802F4E062A9
:104C4000C2600D4A526802F46052D20802610C4AF6
:104C5000126802F007020A607047704710B50648F4
:104C6000806800F08000802804D1FFF7F6FF8020E4
:104C70000149887210BD00000010024074CE020885
:104C80000020024010B5002804DB0A07130EB24AC8
:104C9000135406E00A07140EB04A00F00F031B1F5E
:104CA000D45410BD00BF00F00702AC4B0C3B196898
:104CB0004FF6FF031940AA4B0B4343EA0221A74BCF
:104CC0000C3B196000BF70472DE9F05F80460D4630
:104CD0001646002700F03AF9074639462A46334679
:104CE00001F00700C0F1070ABAF1040F02D94FF032
:104CF000040A01E0C0F1070AD14600F1040ABAF142
:104D0000070F02D24FF0000A01E0A0F1030AD446D7
:104D10004FF0010A0AFA09FAAAF1010A0AEA020A9C
:104D20000AFA0CFA4FF0010B0BFA0CFBABF1010B7A
:104D30000BEA030B4AEA0B0421464046FFF7A2FFA9
:104D4000BDE8F09F0146084600280DDB00BF00BF0C
:104D500000F01F0301229A4043099B0003F1E02366
:104D6000C3F8002100BF00BF00BF704710B5014667
:104D7000084600280BDB00F01F0301229A40794B04
:104D8000440943F82420BFF34F8FBFF36F8F00BF58
:104D900010BD00BFBFF34F8F70480C38006800F49F
:104DA000E0606F490843001D6C490C390860BFF38F
:104DB0004F8F00BF00BF00BFFDE770B5044625461A
:104DC000681EB0F1807F01D301200FE0681E4FF014
:104DD000E02148610F214FF0FF30FFF753FF002023
:104DE0004FF0E021886107200861002070BD10B5F8
:104DF00000F0ACF810BD2DE9F04304462046002831
:104E000003DB554F3F5C3F0907E0544F00F00F0CA8
:104E1000ACF1040C17F80C703F093D460E4606F045
:104E20000700C0F10708B8F1040F02D94FF00408D9
:104E300001E0C0F10708C44600F10408B8F1070F0B
:104E400002D24FF0000801E0A0F10308474625FA1E
:104E500007F84FF0010909FA0CF9A9F1010908EA6C
:104E60000908C2F800804FF0010808FA07F8A8F115
:104E7000010808EA0508C3F8008000BFBDE8F08318
:104E800010B501460846002808DB00F01F03012288
:104E90009A40344B8033440943F8242000BF10BDAE
:104EA00010B50146084600280EDB2E4A8032430921
:104EB00052F8232000F01F040123A3401A400AB136
:104EC000012202E0002200E00022104610BD10B5D1
:104ED00001460846002807DB00F01F0301229A4024
:104EE000214B440943F8242000BF10BD10B50146F2
:104EF000084600280EDB1C4A8032430952F8232062
:104F000000F01F040123A3401A400AB1012202E06D
:104F1000002200E00022104610BD042808D14FF006
:104F2000E021096941F004014FF0E022116107E03E
:104F30004FF0E021096921F004014FF0E0221161F6
:104F40007047704710B5FFF7FCFF10BD03480C38E1
:104F50000068C0F30220704700E400E018ED00E0B4
:104F60000000FA0580E100E080E200E070B5044650
:104F70002168096921F44051E268114322681161F6
:104F80002269A1681143626941EA02052168C96882
:104F900041F20C62914329432268D160216849693A
:104FA00021F44071A269114322685161FE4A2168CF
:104FB000914254D1FFF7C7FD00EBC00101EB001196
:104FC00062689200B1FBF2F100EBC00202EB00124A
:104FD00063689B00B2FBF3F26423B2FBF3F202EBD3
:104FE000C20303EB0212A1EB8201322202EB011198
:104FF0006422B1FBF2F101F0F00100EBC00202EB20
:10500000001263689B00B2FBF3F26423B2FBF3F27D
:1050100001EB021200EBC00101EB001163689B0081
:10502000B1FBF3F100EBC00303EB00136668B600BD
:10503000B3FBF6F36426B3FBF6F303EBC30606EB10
:105040000313A1EB8301322303EB01116423B1FBB2
:10505000F3F101F00F0111442268916053E0FFF772
:1050600067FD00EBC00101EB001162689200B1FB2B
:10507000F2F100EBC00202EB001263689B00B2FB8E
:10508000F3F26423B2FBF3F202EBC20303EB02126E
:10509000A1EB8201322202EB01116422B1FBF2F199
:1050A00001F0F00100EBC00202EB001263689B000C
:1050B000B2FBF3F26423B2FBF3F201EB021200EB5A
:1050C000C00101EB001163689B00B1FBF3F100EB41
:1050D000C00303EB00136668B600B3FBF6F3642667
:1050E000B3FBF6F303EBC30606EB0313A1EB83015B
:1050F000322303EB01116423B1FBF3F101F00F0143
:1051000011442268916070BD704710B504460CB917
:10511000012010BDA06900B100E000BF94F8390083
:1051200028B9002084F83800204621F013FD2420FF
:1051300084F839002068C06820F400502168C860F5
:105140002046FFF713FF2068006920F49040216893
:1051500008612068406920F02A00216848612068C1
:10516000C06840F400502168C8600020E06320203F
:1051700084F8390084F83A000020CAE710B50446E4
:105180000CB9012010BD94F8390028B9002084F82A
:105190003800204621F0DEFC242084F83900206805
:1051A000C06820F400502168C8602046FFF7DEFE8A
:1051B0002068006920F490402168086120684069F7
:1051C00020F02200216848612068406940F0080012
:1051D000216848612068C06840F400502168C860B8
:1051E0000020E063202084F8390084F83A00002091
:1051F000C8E770B504460D460CB9012070BD94F89F
:10520000390028B9002084F83800204621F0A2FC9B
:10521000242084F839002068C06820F400502168F8
:10522000C8602046FFF7A2FE2068006920F40060F5
:10523000216808612068406920F02A0021684861DF
:105240002068006940F48040216808612068006996
:1052500020F0200021680861206800692843216847
:1052600008612068C06840F400502168C8600020D0
:10527000E063202084F8390084F83A000020BDE77C
:1052800070B504460D4616460CB9012070BD94F861
:10529000390028B9002084F83800204621F05AFC53
:1052A000242084F839002068C06820F40050216868
:1052B000C8602046FFF75AFE2068006920F490403D
:1052C000216808612068406920F02A00216848614F
:1052D0002068006920F00F002168086120680069DB
:1052E0002843216808612068C06820F400602168B4
:1052F000C8602068C06830432168C8602068C06802
:1053000040F400502168C8600020E063202084F849
:10531000390084F83A000020B8E7704710B5044619
:105320000CB9012010BD242084F839002068C06821
:1053300020F400502168C8602046FFF7EEFF0020EF
:10534000E06384F8390084F83A0000BF84F838003C
:1053500000BF00BFE6E72DE9F04104460D461746C1
:105360009846069E24E0701C10B32EB1FEF740FF55
:10537000A0EB0800B0421BD92068C06820F4D070B0
:105380002168C8602068406920F0010021684861F8
:10539000202084F8390084F83A0000BF002084F807
:1053A000380000BF032001E000380140BDE8F08173
:1053B000206800682840A84201D1012000E00020B8
:1053C000B842D0D00020EEE72DE9F84304460D4660
:1053D00016461F464FF0000994F8390020285CD18A
:1053E00005B116B90120BDE8F88300BF94F8380074
:1053F000012801D10220F6E7012084F8380000BF1F
:105400000020E063212084F83900FEF7F1FE814698
:10541000A684E6842BE0E08C401EE084A068B0F512
:10542000805F16D14B460022802120460097FFF76F
:1054300092FF08B10320D6E7A846B8F80000C0F3F1
:10544000080021684860206908B9AD1C0FE06D1C98
:105450000DE04B460022802120460097FFF77BFF9E
:1054600008B10320BFE715F8010B21684860E08C04
:105470000028D0D14B460022402120460097FFF75C
:105480006AFF08B10320AEE7202084F8390000BF8E
:10549000002084F8380000BFA5E70220A3E72DE92B
:1054A000F84304460D4616461F464FF0000994F88F
:1054B0003A00202860D105B116B90120BDE8F88373
:1054C00000BF94F83800012801D10220F6E701203E
:1054D00084F8380000BF0020E063222084F83A00FE
:1054E000FEF786FE8146A685E68539E0E08D401E02
:1054F000E085A068B0F5805F1BD14B4600222021DB
:1055000020460097FFF727FF08B10320D6E7A846FB
:10551000206938B920684068C0F30800A8F8000086
:10552000AD1C1DE020684068C0B2A8F800006D1CEA
:1055300016E04B460022202120460097FFF70BFF84
:1055400008B10320BAE7206920B92068406805F84F
:10555000010B05E02068406800F07F0005F8010BB2
:10556000E08D0028C2D1202084F83A0000BF00203E
:1055700084F8380000BFA1E702209FE710B503467A
:1055800093F83900202823D101B10AB9012010BDB8
:1055900000BF93F83800012801D10220F7E701206D
:1055A00083F8380000BF19629A84DA840020D86337
:1055B000212083F8390000BF002083F8380000BFA5
:1055C0001868C06840F080001C68E0600020DEE7DA
:1055D0000220DCE710B5034693F83A0020282FD1CB
:1055E00001B10AB9012010BD00BF93F838000128AD
:1055F00001D10220F7E7012083F8380000BF99624B
:105600009A85DA850020D863222083F83A0000BF0B
:10561000002083F8380000BF1868C06840F480702C
:105620001C68E0601868406940F001001C68606117
:105630001868C06840F020001C68E0600020D2E7D5
:105640000220D0E770470168C96821F490710268B0
:10565000D1600168496921F001010268516120218E
:1056600080F83A1070470168C96821F0C0010268EB
:10567000D160202180F83910704770B506460025AA
:10568000746A20684069C0F3C01594F83900212875
:1056900005D125B10020E0842046FFF7E4FF206813
:1056A0004069C0F3801594F83A00222805D125B14D
:1056B0000020E0852046FFF7C6FFE06B40F01000B9
:1056C000E0632046FFF7BEFF70BD704770B504462B
:1056D000656A2846FFF7F9FF70BD704770B505464B
:1056E0006C6A2868006800F0200070B90020E0842F
:1056F0002068406920F08000216848612068C06807
:1057000040F040002168C86002E0204623F028FAFB
:1057100070BDF7B50446154694F8390020283DD1F0
:10572000019800B10DB90120FEBD00BF94F838000A
:10573000012801D10220F7E7012084F8380000BFDA
:1057400001982062A584E5840020E063212084F88C
:105750003900FE48216B8862FD48216BC862FD4814
:10576000216B08630020216B486301AE23681A1D7A
:1057700031682B46206B00F0DAFD6FF040002168A5
:10578000086000BF002084F8380000BF206840692E
:1057900040F08000216848610020C5E70220C3E78F
:1057A000704770B50446656A2846FFF7F9FF70BD7B
:1057B000704770B505466C6A2868006800F02000E4
:1057C000B0B90020E0852068C06820F480702168AE
:1057D000C8602068406920F00100216848612068A5
:1057E000406920F0400021684861202084F83A0098
:1057F000204622F0B2FF70BD77B581B00446154651
:1058000094F83A00202850D1029800B115B901202F
:1058100004B070BD00BF94F83800012801D1022007
:10582000F6E7012084F8380000BF0298A062A58541
:105830000020E063222084F83A00C748616B886248
:10584000C648616BC862C348616B08630020616B26
:10585000486302AE32682368191D2B46606B00F066
:1058600066FD00BF0020009020680068009020685E
:105870004068009000BF00BF00BF002084F83800DF
:1058800000BF2068C06840F480702168C86020684C
:10589000406940F00100216848612068406940F09B
:1058A0004000216848610020B2E70220B0E70146CD
:1058B000002200BF91F83800012801D10220704772
:1058C000012081F8380000BF08684069C0F3C012A9
:1058D00091F83900212806D12AB10868406920F0E2
:1058E00080000B68586108684069C0F3801291F825
:1058F0003A00222812D18AB10868C06820F480706A
:105900000B68D8600868406920F001000B68586196
:105910000868406920F040000B68586100BF002013
:1059200081F8380000BF00BFC9E708B5014600BFD5
:1059300091F83800012801D1022008BD012081F82A
:10594000380000BF91F83900212805D10868406966
:1059500040F080000A68506191F83A0022281CD17A
:1059600000BF002000900868006800900868406848
:10597000009000BF00BF0868C06840F480700A68EB
:10598000D0600868406940F001000A68506108680A
:10599000406940F040000A68506100BF002081F873
:1059A000380000BF00BFC8E770B504460025206876
:1059B0004069C0F3C01594F8390021280ED16DB1AB
:1059C0002068406920F0800021684861206B10B198
:1059D000206B00F0FAFC2046FFF745FE2068406986
:1059E000C0F3801594F83A0022280ED16DB12068DA
:1059F000406920F0400021684861606B10B1606B25
:105A000000F0E3FC2046FFF71EFE002070BD10B53D
:105A100004462068C06820F4F0702168C8602068DF
:105A2000406920F00100216848612068406900F069
:105A30008000B8B12068406920F08000216848618A
:105A4000206B78B10020216B4863206B00F0BDFC17
:105A500040B1206B00F0C8FF202803D11020E06384
:105A6000032010BD2068406900F04000B8B12068F4
:105A7000406920F0400021684861606B78B10020E7
:105A8000616B4863606B00F0A0FC40B1606B00F09C
:105A9000ABFF202803D11020E0630320E1E70020C2
:105AA000E084E085E063202084F83A0084F839003F
:105AB0000020D6E710B504462068C06820F0C0007A
:105AC0002168C8602068406900F08000B8B1206893
:105AD000406920F0800021684861206B78B1002087
:105AE000216B4863206B00F070FC40B1206B00F02C
:105AF0007BFF202803D11020E063032010BD00208D
:105B0000E084202084F839000020F7E710B504462F
:105B10002068C06820F490702168C86020684069DF
:105B200020F00100216848612068406900F04000D1
:105B300010B32068406920F0400021684861606B24
:105B4000D0B10020616B4863606B09E0DD5600084E
:105B5000CD5600087B560008B3570008A35700082D
:105B600000F033FC40B1606B00F03EFF202803D111
:105B70001020E063032010BD0020E085202084F881
:105B80003A000020F7E7704770B505466C6A0020C0
:105B9000616B4863206B18B1206B406B00B170BD26
:105BA0000020E084E085E063202084F8390084F858
:105BB0003A002046FFF7E7FF00BFF0E770B5054663
:105BC0006C6A0020216B4863606B18B1606B406B9E
:105BD00000B170BD0020E084E085E063202084F8FF
:105BE000390084F83A002046FFF7CDFF00BFF0E708
:105BF00070B5044601252068C06820F4F070216863
:105C0000C8602068406920F0010021684861206B6D
:105C100058B12068406900F0800018B1FB48216B42
:105C2000486302E00020216B4863606B58B1206834
:105C3000406900F0400018B1F548616B486302E02C
:105C40000020616B48632068406900F0800080B1EB
:105C50002068406920F0800021684861206B40B1D5
:105C6000206B00F0DDFB18B10020216B486300E0E1
:105C700000252068406900F0400088B12068406934
:105C800020F0400021684861606B48B1606B00F013
:105C9000C7FB20B10020616B4863012500E00025AF
:105CA000012D0BD10020E084E085E063202084F802
:105CB000390084F83A002046FFF765FF002070BDE8
:105CC000704770B505466C6A0020E084202084F897
:105CD00039002046FFF7F4FF70BD10B50446206878
:105CE000C06820F0C0002168C8602068406900F0EA
:105CF0008000D8B12068406920F0800021684861A8
:105D0000206B50B1C348216B4863206B00F088FBC7
:105D1000A0B1206B416B884710E00020E084202078
:105D200084F839002046FFF7CBFF07E00020E0842D
:105D3000202084F839002046FFF7C2FF002010BD64
:105D4000704770B505466C6A0020E085202084F815
:105D50003A002046FFF7F4FF70BD10B504462068F6
:105D6000C06820F490702168C8602068406920F005
:105D70000100216848612068406900F04000D8B106
:105D80002068406920F0400021684861606B50B194
:105D9000A148616B4863606B00F042FBA0B1606B8F
:105DA000416B884710E00020E085202084F83A000D
:105DB0002046FFF7C5FF07E00020E085202084F89B
:105DC0003A002046FFF7BCFF002010BD10B5044686
:105DD0002068C06820F040002168C860202084F856
:105DE0003900204622F0BCFE002010BD014691F88B
:105DF000390021282CD18868B0F5805F0FD10A6A5C
:105E00001088C0F308000B685860086918B9086A60
:105E1000801C086209E0086A401C086205E00B6A01
:105E2000581C086218780B685860C88C401E80B2F5
:105E3000C88458B90868C06820F080000B68D86032
:105E40000868C06840F040000B68D86000207047C8
:105E50000220FCE770B505466C6A0020E085E0840E
:105E60002046FFF7EFFB70BD70B5044694F83A008A
:105E700022284AD1A068B0F5805F13D1A56A2069B5
:105E800040B920684068C0F308002880A06A801CE0
:105E9000A06219E020684068C0B22880A06A401C57
:105EA000A06211E0206938B920684068C1B2A26AD6
:105EB000501CA062117007E02068406800F07F016C
:105EC000A26A501CA0621170E08D401E80B2E08575
:105ED000C8B92068C06820F020002168C860206828
:105EE000C06820F480702168C8602068406920F094
:105EF000010021684861202084F83A00204622F001
:105F00002CFC002070BD0020FCE70220FAE72DE900
:105F1000F0470446206805682068C668206847691D
:105F20004FF00008C14605F00F08B8F1000F0AD184
:105F300005F0200038B106F0200020B12046FFF720
:105F400093FFBDE8F087B8F1000F78D007F00100AB
:105F500018B906F49070002871D005F0010030B136
:105F600006F4807018B1E06B40F00100E06305F0CA
:105F7000040030B107F0010018B1E06B40F00200FE
:105F8000E06305F0020030B107F0010018B1E06BEA
:105F900040F00400E06305F0080030B107F00100B4
:105FA00018B1E06B40F00800E063E06B68B305F007
:105FB000200028B106F0200010B12046FFF754FF62
:105FC00020684069C0F38019E06B00F0080010B948
:105FD000B9F1000F2DD02046FFF735FB206840694E
:105FE00000F0400008B32068406920F040002168BC
:105FF0004861606BA8B10948616B4863606B00F051
:106000000FFA10B1606B416B884717E0BD5B000869
:10601000895B0008C35C0008435D0008555E00080A
:106020000DE02046FFF70EFB08E02046FFF70AFBD5
:1060300004E02046FFF706FB0020E06381E705F05F
:10604000800030B106F0800018B12046FFF7CEFE88
:1060500077E705F0400030B106F0400018B1204667
:10606000FFF7B4FE6DE700BF6BE7014600BF91F894
:106070003800012801D102207047012081F8380042
:1060800000BF242081F839000868C06840F0010092
:106090000A68D060202081F8390000BF002081F814
:1060A000380000BF00BFE7E7014600BF91F83800A5
:1060B000012801D102207047012081F8380000BF7B
:1060C000242081F839000868C06840F002000A689E
:1060D000D060202081F8390000BF002081F838000E
:1060E00000BF00BFE7E7014600BF91F83800012874
:1060F00001D102207047012081F8380000BF242020
:1061000081F839000868C06820F002000A68D06091
:10611000202081F8390000BF002081F8380000BF3E
:1061200000BFE7E70146002200BF91F838000128D0
:1061300001D102207047012081F8380000BF2420DF
:1061400081F839000868C26822F00C0242F00802A7
:106150000868C260202081F8390000BF002081F863
:10616000380000BF00BFE5E70146002200BF91F8FC
:106170003800012801D102207047012081F8380041
:1061800000BF242081F839000868C26822F00C02A0
:1061900042F004020868C260202081F8390000BF84
:1061A000002081F8380000BF00BFE5E7014600226B
:1061B000002391F8392091F83A3042EA0300704701
:1061C0000146C86B704700000146002209B9012052
:1061D0007047F94B0868C01A1423B0FBF3F0800035
:1061E0000864F5480838C863022081F8210008686F
:1061F000026843F6F0708243D1E901031843CB688B
:1062000018430B6918434B6918438B691843CB69D2
:10621000184302430868026000208863012081F867
:106220002100002081F8200000BFD1E7014609B914
:10623000012070470868006820F001000A681060BB
:1062400000200A6810600A6850600A6890600A6856
:10625000D060D94A0868801A1422B0FBF2F080009E
:106260000864D5480838C86391F840200120904060
:10627000CA6B506000208862C86208634863886304
:1062800081F8210000BF81F8200000BF00BFD0E7E7
:1062900030B590F840500124AC40C56B6C60046888
:1062A00063604468102C04D10468A2600468E16053
:1062B00003E00468A1600468E26030BD2DE9F041AC
:1062C00004460D4616461F464FF0000800BF94F8DE
:1062D0002000012802D10220BDE8F081012084F8CD
:1062E000200000BF94F82100012817D1022084F873
:1062F00021000020A0632068006820F001002168D0
:1063000008603B46324629462046FFF7C1FF206819
:10631000006840F001002168086006E000BF00202E
:1063200084F8200000BF4FF002084046D4E72DE972
:10633000F04104460D4616461F464FF0000800BFC8
:1063400094F82000012802D10220BDE8F08101204C
:1063500084F8200000BF94F8210001282CD10220ED
:1063600084F821000020A0632068006820F001006C
:10637000216808603B46324629462046FFF788FFE1
:10638000E06A30B12068006840F00E0021680860C3
:106390000BE02068006820F0040021680860206895
:1063A000006840F00A00216808602068006840F03A
:1063B00001002168086006E000BF002084F820008A
:1063C00000BF4FF002084046BFE70146002291F8A7
:1063D0002100022808D00420886300BF002081F833
:1063E000200000BF012070470868006820F00E0000
:1063F0000B6818600868006820F001000B681860DE
:1064000091F8403001209840CB6B5860012081F812
:10641000210000BF002081F8200000BF1046E2E705
:1064200070B50446002594F82100022803D004200A
:10643000A063012548E02068006820F00E00216874
:1064400008602068006820F00100216808605A494F
:106450002068884201D1012026E057491431206884
:10646000884201D110201FE053492831206888421A
:1064700001D1801518E050493C312068884201D193
:10648000801411E04C4950312068884202D14FF409
:10649000803009E0484964312068884202D14FF4D5
:1064A000801001E04FF080704349083948600120B6
:1064B00084F8210000BF002084F8200000BF606B3A
:1064C00010B12046616B8847284670BD2DE9F04128
:1064D00004460E4615464FF0000894F821000228A5
:1064E00009D00420A06300BF002084F8200000BF72
:1064F0000120BDE8F0812068006800F0200020B194
:106500004FF48070A0630120F3E77EBB2A49206826
:10651000884201D1022027E02749143120688842AF
:1065200001D1202020E0244928312068884201D16F
:10653000401519E020493C312068884202D14FF4CF
:10654000005011E01C4950312068884202D14FF4BC
:10655000003009E0184964312068884202D14FF4C4
:10656000001001E04FF00070074631E0FFE71249EC
:106570002068884201D1042029E00F4914312068A5
:10658000884201D1402022E00B492831206888420E
:1065900001D100151BE008493C312068884202D136
:1065A0004FF4804013E0044950312068884205D1FF
:1065B0004FF480200BE0000008000240FA492068F8
:1065C000884202D14FF4800001E04FF0806007461E
:1065D000FDF70EFE80465DE0F3486C380068F24A35
:1065E000643A2168914201D1082126E0EE4A503AEE
:1065F0002168914201D180211FE0EB4A3C3A216899
:10660000914201D1C91418E0E74A283A2168914221
:1066100002D14FF4004110E0E34A143A216891425C
:1066200002D14FF4002108E0DF4A2168914202D1F3
:106630004FF4000101E04FF00061084098B194F878
:10664000401001208840E16B4860A06B40F00100E1
:10665000A063012084F8210000BF002084F82000FE
:1066600000BF012045E7681CA0B12DB1FDF7C0FDBA
:10667000A0EB0800A8420DD9A06B40F02000A06359
:10668000012084F8210000BF002084F8200000BF12
:1066900001202EE7C4486C380068384000289BD0A1
:1066A000A6BBC14964392068884201D1022026E096
:1066B000BD4950392068884201D120201FE0BA49E5
:1066C0003C392068884201D1401518E0B649283984
:1066D0002068884202D14FF4005010E0B2491439CA
:1066E0002068884202D14FF4003008E0AE492068AB
:1066F000884202D14FF4001001E04FF00070AA4927
:106700006C394860012084F8210031E0FFE7A64998
:1067100064392068884201D1042026E0A24950391A
:106720002068884201D140201FE09F493C39206801
:10673000884201D1001518E09B4928392068884219
:1067400002D14FF4804010E0974914392068884204
:1067500002D14FF4802008E093492068884202D19A
:106760004FF4800001E04FF080608F496C39486041
:1067700000BF002084F8200000BF00BFB9E670B55C
:106780000446E06B05682068066894F84010042011
:1067900088402840002846D006F00400002842D057
:1067A0002068006800F0200028B92068006820F008
:1067B0000400216808607C4964392068884201D15E
:1067C000042026E0784950392068884201D14020D1
:1067D0001FE075493C392068884201D1001518E056
:1067E000714928392068884202D14FF4804010E076
:1067F0006D4914392068884202D14FF4802008E0A6
:1068000069492068884202D14FF4800001E04FF0CE
:10681000806065496C394860E06A00287AD020467B
:10682000E16A884776E094F84010022088402840CA
:10683000A8B306F0020090B32068006800F02000C2
:1068400040B92068006820F00A0021680860012033
:1068500084F82100544964392068884201D102201B
:1068600027E0514950392068884201D1202020E09A
:106870004D493C392068884201D1401519E04A4908
:1068800028392068884202D14FF4005011E046496F
:1068900014392068884203D14FF4003009E016E033
:1068A00041492068884202D14FF4001001E04FF0C6
:1068B00000703D496C39486000BF002084F820001A
:1068C00000BFA06A30B32046A16A884722E094F84E
:1068D0004010082088402840E0B106F00800C8B108
:1068E0002068006820F00E002168086094F84010CD
:1068F00001208840E16B48600120A06384F82100FA
:1069000000BF002084F8200000BF206B10B120469B
:10691000216B884770BD10B50346002400BF93F873
:106920002000012801D1022010BD012083F82000A1
:1069300000BF93F82100012812D131B1012906D0FE
:10694000022906D0032908D105E09A6207E0DA623D
:1069500005E01A6303E05A6301E0012400BF00E090
:10696000012400BF002083F8200000BF2046DBE7A1
:106970000246002300BF92F82000012801D1022026
:106980007047012082F8200000BF92F82100012802
:106990001ED1052919D2DFE801F003090C0F1200FE
:1069A0000020906213E000006C0002400020D062E2
:1069B0000DE0002010630AE00020506307E0002093
:1069C0009062D0621063506301E0012300BF00E0D9
:1069D000012300BF002082F8200000BF1846CFE747
:1069E000014691F8210070470146886B704700000E
:1069F000F8B5044600260025207800F001000028A4
:106A00006BD000278E48C06900F0805070B900BF7D
:106A10008B48C06940F080508949C8610846C06908
:106A200000F08050009000BF00BF0127854800683B
:106A300000F48070B0B98348006840F480708149E8
:106A40000860FDF7D5FB064606E0FDF7D1FB801B8D
:106A5000642801D90320F8BD7A48006800F48070EA
:106A60000028F2D07648006A00F440752DB3A08863
:106A700000F44070A84220D07148006A20F44075AC
:106A8000012071490860002008606D48056205F02A
:106A9000010090B1FDF7ACFB064608E0FDF7A8FB4E
:106AA000801B41F28831884201D90320D3E7644832
:106AB000006A00F002000028F0D06148006A20F46B
:106AC0004070616808435E490862012F04D108469E
:106AD000C06920F08050C86100BF207800F002003B
:106AE000022807D15648406820F44040A168084376
:106AF00053494860207800F01000102807D1504812
:106B0000406820F48000E16808434D494860002057
:106B1000A1E7002101220260494A126A02F4407191
:106B20004160026842F002020260454A526802F483
:106B300040428260026842F010020260404A52689D
:106B400002F48002C26070472DE9F04385B006462A
:106B50003EA30FCB01AC0FC440A0006800904FF0E3
:106B60000008002500270024A146012E30D0022E67
:106B700055D0102E5ED132484468006800F0807015
:106B800000B301A8C4F38341475C04F4803070B1C2
:106B90002B484068C0F340401DF8008004F480306A
:106BA00040B12F48B0FBF8F000FB07F502E02D489C
:106BB00007FB00F52248406800F48000B0F5800F24
:106BC00001D1A94603E068000321B0FBF1F932E0EE
:106BD0001B48046A04F44070B0F5807F05D104F0CE
:106BE000020010B14FF4004918E004F44070B0F511
:106BF000007F07D11248406A00F0020010B149F648
:106C000040490BE004F44070B0F5407F06D10C48D9
:106C1000006800F4003008B14FF224490BE0FDF7A2
:106C200092FF07494968C1F38131491C4900B0FB13
:106C3000F1F900E000BF00BF484605B0BDE8F083B1
:106C4000001002400070004040044242020304056C
:106C5000060708090A0B0C0D0E0F101001020000A8
:106C600000127A0000093D002DE9F8470346002292
:106C700094466EE14FF0010808FA02F4D1F8008062
:106C800008EA0400A0427DD1DFF86CA4D1F80480AA
:106C9000A8EB0A09D0453AD014DCB8F1030F50D064
:106CA00009DCB8F1000F31D0B8F1010F1CD0B8F1F8
:106CB000020F49D120E0B8F1110F18D0B8F1120F2E
:106CC00042D11EE0B9F5881F25D006DCB9F5803F1A
:106CD00020D0B9F5801F37D11AE0B9F5001F18D0C0
:106CE000B9F5041F30D117E0D1F80CC02DE0D1F870
:106CF0000C8008F1040C28E0D1F80C8008F1080C95
:106D000023E0D1F80C8008F10C0C1EE000BF00BF9E
:106D100000BF00BF00BF00BFD1F80880B8F1000F6E
:106D200002D14FF0040C0BE0D1F80880B8F1010F4C
:106D300003D14FF0080C1C6102E04FF0080C5C61BD
:106D400003E04FF0000C00E000BF00BFFF2801D8B7
:106D5000984601E003F104084646FF2802D84FEAAE
:106D6000820803E0A2F108084FEA88084746D6F8EF
:106D700000804FF00F0909FA07F928EA09080CFA10
:106D800007F900E088E048EA0908C6F80080D1F871
:106D9000048008F08058B8F1805F7DD100BFDFF833
:106DA0005C83D8F8188048F00108DFF85093C9F8E0
:106DB0001880C846D8F8188008F00108CDF800807F
:106DC00000BF00BF4FEAB9384FEA920958F829507E
:106DD0004FEA82784FEA18794FF00F0808FA09F85D
:106DE00025EA0805DFF81883434502D14FF0000873
:106DF00016E0DFF81083434502D14FF001080FE0A1
:106E0000DFF80483434502D14FF0020808E0DFF8C1
:106E1000FC82434502D14FF0030801E04FF0040823
:106E20004FEA82794FEA197908FA09F848EA050524
:106E3000DFF8DC824FEA920948F82950D1F8048043
:106E400008F48038B8F5803F0AD1DFF8C882D8F856
:106E5000008048EA0008DFF8BC92C9F8008009E029
:106E6000DFF8B082D8F8008028EA0008DFF8A492A2
:106E7000C9F80080D1F8048008F40038B8F5003F64
:106E800010D1DFF8908208F10408D8F8008048EAB1
:106E90000008DFF8809200E05AE009F10409C9F81F
:106EA00000800DE0DFF86C8208F10408D8F800805B
:106EB00028EA0008DFF85C9209F10409C9F80080AB
:106EC000D1F8048008F48018B8F5801F0ED1DFF8DF
:106ED000448208F10808D8F8008048EA0008DFF882
:106EE000349209F10809C9F800800DE0DFF8248226
:106EF00008F10808D8F8008028EA0008DFF81492A2
:106F000009F10809C9F80080D1F8048008F40018D4
:106F1000B8F5001F0ED1DFF8FC8108F10C08D8F895
:106F2000008048EA0008DFF8EC9109F10C09C9F883
:106F300000800DE0DFF8DC8108F10C08D8F8008053
:106F400028EA0008DFF8CC9109F10C09C9F80080A3
:106F5000521CD1F8008028FA02F8B8F1000F7FF433
:106F600089AEBDE8F8872DE9F04102460B460020C6
:106F70007FE00127874007EA0301002978D0644FAA
:106F80004FEA900C57F82C4087074FEA177C0F27E1
:106F900007FA0CF73C405A4FBA4201D100270FE0E4
:106FA000584FBA4201D101270AE0574FBA4201D1E6
:106FB000022705E0554FBA4201D1032700E004271C
:106FC0004FEA807C4FEA1C7C07FA0CF7A74230D1CD
:106FD00087074FEA177C0F2707FA0CF44C4F4FEA4C
:106FE000900C57F82C70A743DFF824C14FEA9008A3
:106FF0004CF82870474F3F688F43DFF818C1CCF832
:1070000000700CF104073F688F430CF1040CCCF8BE
:1070100000700CF104073F688F430CF1040CCCF8AE
:1070200000700CF104073F688F430CF1040CCCF89E
:107030000070FF2901D8174600E0171D3D46FF29C3
:1070400001D8870002E0A0F10807BF003E462F6884
:107050004FF00F0C0CFA06FC27EA0C074FF0040C5B
:107060000CFA06FC47EA0C072F60D7688F43D760FD
:10707000401C23FA00F7002F7FF47BAFBDE8F081BE
:10708000024693680B400BB1012000E000207047DE
:107090000AB1016101E00B0403617047C2680A4054
:1070A0000AB1416100E00161704708B502464FF442
:1070B00080300090009808430090009890619161A2
:1070C0000098906190690090906900F4803008B158
:1070D000002008BD0120FCE7704710B504460D48AC
:1070E00014300068204028B10A481430046020465B
:1070F0000BF03AFB10BD0000000011100010024020
:1071000000080140000C0140001001400014014043
:107110000800014000040140704770B504460CB9F6
:10712000012070BD94F83D0028B9002084F83C008F
:10713000204609F01CFD242084F83D0020680068EA
:1071400020F0010021680860FDF7F2FC0546F949CE
:107150006068884206D8F848854201D2012007E0DD
:10716000002005E0F548854201D2012000E0002022
:10717000012800D1D5E7F248B5FBF0F62068406859
:1071800020F03F00304321684860EA496068884247
:1071900001D8701C07E04FF4967070434FF47A7179
:1071A000B0FBF1F0401C2168096A21F03F0108435F
:1071B00021680862DF496068884214D8681E6168E7
:1071C0004900B0FBF1F0401CC0F30B00042801D2D1
:1071D00004203DE0681E61684900B0FBF1F0401CEE
:1071E000C0F30B0034E0A06838B9681E616801EB99
:1071F0004101B0FBF1F0401C0AE0681E616801EB40
:10720000C10202EB0111B0FBF1F0401C40F48040E0
:10721000C0F30B0008B901201AE0A06848B9681E45
:10722000616801EB4101B0FBF1F0401CC0F30B00C1
:107230000CE0681E616801EBC10202EB0111B0FBBA
:10724000F1F0401CC0F30B0040F4804040F40040DB
:107250002168C9694CF6FF72914308432168C861EF
:10726000D4E9070108432168096821F0C0010843F7
:1072700021680860D4E9031008432168896848F24E
:10728000FF329143084321688860D4E9050108432F
:107290002168C96821F0FF0108432168C86020689F
:1072A000006840F001002168086000202064202070
:1072B00084F83D000020206384F83E0000BF30E7E2
:1072C000704710B504460CB9012010BD242084F885
:1072D0003D002068006820F0010021680860204619
:1072E00009F0E1FC0020206484F83D00206384F86C
:1072F0003E0000BF84F83C0000BF00BFE5E7014648
:1073000008684069C0F38020B0B16FF480600A68FB
:10731000506100200863202081F83D00002081F8A2
:107320003E00086C40F00400086400BF002081F8B3
:107330003C0000BF012070470020FCE770B5044608
:107340000D46164620E02046FFF7D9FF08B1012080
:1073500070BD681CC0B1FCF74BFF801BA84200D871
:1073600095B900202063202084F83D00002084F897
:107370003E00206C40F02000206400BF002084F814
:107380003C0000BF0120E3E720684069C0F38000B3
:107390000028D8D00020DBE770B504460D4616461D
:1073A00020E02046FFF7ABFF08B1012070BD681C4C
:1073B000C0B1FCF71DFF801BA84200D895B9002082
:1073C0002063202084F83D00002084F83E00206CDB
:1073D00040F02000206400BF002084F83C0000BF83
:1073E0000120E3E720684069C0F3C0100028D8D02E
:1073F0000020DBE72DE9F04104460D4616461F4606
:107400003DE020684069C0F38020E8B12068006852
:1074100040F40070216808606FF480602168486162
:1074200000202063202084F83D00002084F83E00E6
:10743000206C40F00400206400BF002084F83C0071
:1074400000BF0120BDE8F081701CC0B1FCF7D0FE88
:10745000C01BB04200D896B900202063202084F8D9
:107460003D00002084F83E00206C40F020002064A5
:1074700000BF002084F83C0000BF0120E2E7C5F314
:10748000074001280AD120684069A9B20840A9B282
:10749000884201D101200BE0002009E020688069CA
:1074A000A9B20840A9B2884201D1012000E0002021
:1074B0000028A6D00020C5E72DE9F04104460D467E
:1074C00017461E46DDF818801CE0701CD0B1FCF792
:1074D0008FFEA0EB0800B04200D89EB900202063C8
:1074E000202084F83D00002084F83E00206C40F00D
:1074F0002000206400BF002084F83C0000BF012071
:10750000BDE8F081C5F3074001280AD12068406931
:10751000A9B20840A9B2884201D1012013E000209D
:1075200011E020688069A9B20840A9B2884209D157
:10753000012008E0A086010080841E0000093D00B3
:1075400040420F000020B842BFD00020D8E72DE90C
:10755000F84304460D4617469846E66A082E04D0BE
:10756000012E02D016F5803F06D12068006840F455
:1075700080702168086008E0206B122805D120681F
:10758000006840F48070216808603B4600224FF09C
:1075900001112046CDF80080FFF78EFF10B10120C9
:1075A000BDE8F8832069B0F5804F04D105F0FE00F6
:1075B0002168086112E005F44070F02141EAE01012
:1075C0002168086143463A46F8492046FFF712FF12
:1075D00008B10120E4E7E8B22168086143463A4671
:1075E000F249891F2046FFF705FF08B10120D7E7C0
:1075F0000020D5E72DE9F8430446894616461F4684
:10760000DDF82080FCF7F4FD054694F83D002028C5
:107610007ED119230122E64920460095FFF74CFF51
:1076200010B10220BDE8F88300BF94F83C000128A7
:1076300001D10220F6E7012084F83C0000BF206859
:10764000006800F0010028B92068006840F00100DF
:10765000216808602068006820F4006021680860E4
:10766000212084F83D00102084F83E000020206492
:1076700066626785608D2085CE48E0622B46424673
:1076800049462046FFF763FF08B10120CAE700BF63
:107690000020009020684069009020688069009078
:1076A00000BF00BF44E02A4641462046FFF774FE73
:1076B00050B1206C042805D12068006840F40070A7
:1076C000216808600120ADE7606A007821680861E0
:1076D000606A401C6062608D401E6085208D401E87
:1076E000208520684069C0F3800070B1208D60B1B2
:1076F000606A007821680861606A401C6062608D81
:10770000401E6085208D401E20852A46414600E0AF
:1077100022E02046FFF712FE50B1206C042805D16C
:107720002068006840F4007021680860012079E753
:10773000208D0028B7D12068006840F400702168CF
:107740000860202084F83D00002084F83E0000BF3F
:1077500084F83C0000BF65E7022063E770B504468B
:107760000D46164632E020684069C0F30010A0B113
:107770006FF010002168486100202063202084F809
:107780003D00002084F83E00206C206400BF0020F3
:1077900084F83C0000BF012070BDFCF729FD801B70
:1077A000A84200D895B900202063202084F83D002D
:1077B000002084F83E00206C40F02000206400BFD0
:1077C000002084F83C0000BF0120E5E72068406904
:1077D000C0F380100028C6D00020DDE72DE9F84373
:1077E00004460D4690461E46E76A2068006840F44D
:1077F000806021680860082F04D0012F02D017F59F
:10780000803F06D12068006840F4807021680860DD
:1078100008E0206B112805D12068006840F48070D2
:1078200021680860434600224FF00111204600966F
:10783000FFF742FE10B10120BDE8F8832069B0F5E2
:10784000804F05D1E8B240F00100216808613FE0B7
:1078500005F44070F02141EAE010216808613346E8
:10786000424652492046FFF7C5FD08B10120E3E733
:10787000E8B221680861334642464C49891F2046D8
:10788000FFF7B8FD08B10120D6E700BF0020009047
:1078900020684069009020688069009000BF00BFA8
:1078A0002068006840F48070216808604346002228
:1078B0004FF0011120460096FFF7FEFD08B10120B0
:1078C000BAE705F44070F12141EAE010216808614F
:1078D000334642463549891F2046FFF78BFD08B1E4
:1078E0000120A9E70020A7E72DE9F84304468946CF
:1078F00017469846089EFCF77BFC054694F83D0029
:10790000202876D119230122294920460095FFF726
:10791000D3FD10B10220BDE8F88300BF94F83C000D
:10792000012801D10220F6E7012084F83C0000BFC5
:107930002068006800F0010028B92068006840F065
:107940000100216808602068006820F40060216858
:107950000860222084F83D00102084F83E000020BA
:1079600020646762A4F82A80608D20851148E06257
:107970002B46324649462046FFF730FF08B101202A
:10798000C9E7208DC0B900BF002000902068406981
:10799000009020688069009000BF00BF20680068E8
:1079A00040F400702168086052E000000800010007
:1079B000020010000000FFFF208D01281AD120686E
:1079C000006820F480602168086072B600BF002063
:1079D000009020684069009020688069009000BF96
:1079E00000BF2068006840F400702168086062B63B
:1079F0002EE0FBE0208D022819D12068006840F4B9
:107A000000602168086072B600BF00200090206806
:107A10004069009020688069009000BF00BF206826
:107A2000006820F480602168086062B610E0206879
:107A3000006840F480602168086000BF002000906A
:107A400020684069009020688069009000BF00BFF6
:107A5000BDE0208D032870D8208D012815D12A463D
:107A600031462046FFF77AFE08B1012053E720682F
:107A70000069616A0870606A401C6062208D401E67
:107A80002085608D401E6085A1E0208D02282CD1CC
:107A900033460022F74920460095FFF70DFD08B157
:107AA000012038E772B62068006840F40070216851
:107AB000086020680069616A0870606A401C606242
:107AC000208D401E2085608D401E608562B6206836
:107AD0000069616A0870606A401C6062208D401E07
:107AE0002085608D401E608571E033460022E149AB
:107AF00020460095FFF7E0FC08B101200BE7206865
:107B0000006820F480602168086072B6206800690F
:107B1000616A0870606A401C6062208D401E20858A
:107B2000608D401E608533460022D2492046009574
:107B3000FFF7C2FC10B10120EDE621E020680068EB
:107B400040F400702168086020680069616A08706C
:107B5000606A401C6062208D401E2085608D401E42
:107B6000608562B620680069616A0870606A401CBE
:107B70006062208D401E2085608D401E608526E05D
:107B80002A4631462046FFF7E9FD08B10120C2E64A
:107B900020680069616A0870606A401C6062208D1C
:107BA000401E2085608D401E608520684069C0F3BE
:107BB000800060B120680069616A0870606A401CDA
:107BC0006062208D401E2085608D401E6085208D66
:107BD00000287FF43EAF202084F83D00002084F888
:107BE0003E0000BF84F83C0000BF94E6022092E60D
:107BF0002DE9F84304460E4617469846FCF7F8FA76
:107C0000054694F83D00202873D106B117B901202C
:107C1000BDE8F88300BF94F83C00012801D10220A0
:107C2000F6E7012084F83C0000BF2068006800F0FF
:107C3000010028B92068006840F001002168086050
:107C40002068006820F4006021680860212084F822
:107C50003D00202084F83E00002020646662678595
:107C6000608D20858448E0622068006840F4806070
:107C700021680860434600227E49891E20460095FF
:107C8000FFF71AFC08B10120C2E700BF00200090F6
:107C900020684069009020688069009000BF00BFA4
:107CA0002069B0F5404F15D1434600227149891E25
:107CB00020460095FFF700FC08B10120A8E700BFAF
:107CC0000020009020684069009020688069009042
:107CD00000BF00BF2FE02A4641462046FFF75CFB6D
:107CE00040B12068006820F48060216808600120AD
:107CF0008EE743E0606A007821680861606A401C92
:107D00006062608D401E6085208D401E2085206849
:107D10004069C0F3800070B1208D60B1606A007866
:107D200021680861606A401C6062608D401E608549
:107D3000208D401E2085208D0028CCD14346002276
:107D40004FF4823120460095FFF7B6FB08B10120C1
:107D50005EE76FF48060216848612068006820F465
:107D6000806021680860202084F83D00002084F8AD
:107D70003E0000BF84F83C0000BF49E7022047E70F
:107D800070B504460D4616461EE02046FFF7B7FACA
:107D900008B1012070BDFCF72BFA801BA84200D867
:107DA00095B900202063202084F83D00002084F84D
:107DB0003E00206C40F02000206400BF002084F8CA
:107DC0003C0000BF0120E5E720684069C0F30010D7
:107DD0000028DAD00020DDE72DE9F84304460D46FF
:107DE00016461F46FCF704FA804694F83D0020280A
:107DF0007ED105B116B90120BDE8F88300BF94F823
:107E00003C00012801D10220F6E7012084F83C0063
:107E100000BF2068006800F0010028B920680068F1
:107E200040F00100216808602068006820F40060CC
:107E300021680860222084F83D00202084F83E005C
:107E40000020206465626685608D20850A48E062B6
:107E50002068006840F48060216808603B4600228A
:107E60000449891E2046CDF80080FFF725FB28B184
:107E70000120C1E7040001000000FFFF00BF002057
:107E8000009020684069009020688069009000BFE1
:107E900000BF30E0424639462046FFF75FFC38B16C
:107EA0002068006820F48060216808600120A3E752
:107EB00020680069616A0870606A401C6062208DF9
:107EC000401E2085608D401E608520684069C0F39B
:107ED000800080B1208D70B120680069616A0870EF
:107EE000606A401C6062208D401E2085608D00E02D
:107EF00031E0401E6085208D0028CBD142463946B6
:107F00002046FFF73DFF38B12068006820F480600C
:107F10002168086001206FE700BF00200090206802
:107F2000406900902068006840F001002168086006
:107F300000BF00BF2068006820F4806021680860EE
:107F4000202084F83D00002084F83E0000BF84F823
:107F50003C0000BF50E702204EE738B50446002041
:107F6000009094F83D0020286AD1FE480068192549
:107F7000B0FBF5F04FF47A75B0FBF5F000EBC005FF
:107F800005EB0010009000BF0098401E0090009884
:107F900090B900202063202084F83D00002084F860
:107FA0003E00206C40F02000206400BF002084F8D8
:107FB0003C0000BF012038BD20688069C0F340004C
:107FC0000028E1D100BF94F83C00012801D1022033
:107FD000F1E7012084F83C0000BF2068006800F051
:107FE000010028B92068006840F001002568286079
:107FF0002068006820F4006025682860212084F84B
:108000003D00102084F83E000020206462626385F9
:10801000608D2085D448E06261642068006840F487
:1080200080702568286000BF002084F83C0000BFF5
:108030002068406840F4E060256868600020BAE786
:108040000220B8E738B504460020009094F83D00BF
:10805000202871D1C34800681925B0FBF5F04FF412
:108060007A75B0FBF5F000EBC00505EB0010009051
:1080700000BF0098401E0090009890B90020206337
:10808000202084F83D00002084F83E00206C40F061
:108090002000206400BF002084F83C0000BF0120C5
:1080A00038BD20688069C0F340000028E1D100BFDE
:1080B00094F83C00012801D10220F1E7012084F866
:1080C0003C0000BF2068006800F0010028B920686B
:1080D000006840F00100256828602068006820F4EE
:1080E000006025682860222084F83D00102084F874
:1080F0003E000020206462626385608D20859A487E
:10810000E06261642068006840F48060256828604F
:108110002068006840F480702568286000BF002057
:1081200084F83C0000BF2068406840F4E0602568A7
:1081300068600020B4E7FFE70220B1E710B503460E
:1081400093F83D00202840D101B10AB9012010BDAB
:1081500000BF93F83C00012801D10220F7E701207D
:1081600083F83C0000BF1868006800F0010028B9DF
:108170001868006840F001001C68206018680068FA
:1081800020F400601C682060212083F83D0020203E
:1081900083F83E000020186459625A85588D18856E
:1081A0007148D8621868006840F480601C682060DC
:1081B00000BF002083F83C0000BF1868406840F40E
:1081C000E0601C6860600020C1E70220BFE710B5D6
:1081D000034693F83D00202840D101B10AB901209F
:1081E00010BD00BF93F83C00012801D10220F7E741
:1081F000012083F83C0000BF1868006800F001000F
:1082000028B91868006840F001001C6820601868F0
:10821000006820F400601C682060222083F83D0084
:10822000202083F83E000020186459625A85588D3A
:1082300018854D48D8621868006840F480601C6852
:10824000206000BF002083F83C0000BF1868406831
:1082500040F4E0601C6860600020C1E70220BFE7D6
:10826000704770B505466C6A0020616B8862A16B2F
:1082700088622068006820F480602168086000201F
:108280006085202084F83D00002084F83E00206CAA
:1082900040F0100020642046FFF7E2FF70BD7047F9
:1082A0007047704770472DE9F04107467C6A94F8A3
:1082B0003D5094F83E80E66A2068406820F44070A3
:1082C000216848600020616B8862A16B886205F0BC
:1082D0002100212806D005F02200222826D1B8F15D
:1082E000200F23D12068406820F400602168486096
:1082F00000206085292D08D121202063282084F8C2
:108300003D002046FFF7CEFF09E02A2D07D12220AD
:108310002063282084F83D002046FFF7C2FF206834
:10832000406840F440702168486052E094F83E0094
:1083300000284ED0608D012805D12068006820F407
:108340008060216808602068406820F440702168DF
:10835000486016F5803F0BD0082E09D0B6F12A4FA1
:1083600006D003E0200300200000FFFF202E05D1EF
:108370002068006840F40070216808602068406848
:1083800020F48050216848602068406820F4006034
:108390002168486000206085206C18B12046FFF7F6
:1083A0005FFF16E0202084F83D0094F83E0040284E
:1083B00007D1002084F83E0020632046FFF770FFBD
:1083C00007E0002084F83E00122020632046FFF7DB
:1083D00066FFBDE8F0812DE9F84304460E461746D6
:1083E00098460020009094F83D0020287ED1F8485F
:1083F00000681921B0FBF1F04FF47A71B0FBF1F095
:1084000000EBC00101EB0010009000BF0098401E7F
:108410000090009898B900202063202084F83D0047
:10842000002084F83E00206C40F02000206400BF53
:10843000002084F83C0000BF0120BDE8F8832068DC
:108440008069C0F340000028E0D100BF94F83C00F0
:10845000012801D10220F0E7012084F83C0000BF90
:108460002068006800F0010028B92068006840F02A
:108470000100216808602068006820F4006021681D
:108480000860212084F83D00102084F83E00002080
:1084900020646762A4F82A80608D2085CD48E06260
:1084A0006664208D002846D0CB48616B8862CB483B
:1084B000616B08630020616BC862616B4863238D48
:1084C000D4F800C00CF11002616A606BFDF72FFF59
:1084D0000546FDB92068006840F4806021680860A6
:1084E0002068006840F48070216800E03CE008608B
:1084F00000BF002084F83C0000BF2068406840F4C2
:108500004070216848602068406840F4006021683D
:10851000486027E0202084F83D00002084F83E00D9
:10852000206C40F01000206400BF002084F83C0064
:1085300000BF012081E72068006840F48060216866
:1085400008602068006840F480702168086000BFFF
:10855000002084F83C0000BF2068406840F4E060E0
:1085600021684860002068E7022066E72DE9F843AB
:1085700004460E46174698460020009094F83D00A9
:1085800020287DD1924800681921B0FBF1F04FF40A
:108590007A71B0FBF1F000EBC00101EB001000902C
:1085A00000BF0098401E0090009898B900202063FA
:1085B000202084F83D00002084F83E00206C40F02C
:1085C0002000206400BF002084F83C0000BF012090
:1085D000BDE8F88320688069C0F340000028E0D13E
:1085E00000BF94F83C00012801D10220F0E70120EF
:1085F00084F83C0000BF2068006800F0010028B942
:108600002068006840F00100216808602068006868
:1086100020F4006021680860222084F83D001020CA
:1086200084F83E00002020646762A4F82A80608DF0
:1086300020856848E0626664208D002846D0664840
:10864000A16B88626548A16B08630020A16BC862BA
:10865000A16B4863238DD4F800C00CF11001626A4D
:10866000A06BFDF764FE0546FDB92068006840F484
:108670008060216808602068006840F4807000E035
:108680003DE02168086000BF002084F83C0000BF86
:108690002068406840F44070216848602068406865
:1086A00040F400602168486027E0202084F83D0005
:1086B000002084F83E00206C40F01000206400BFD1
:1086C000002084F83C0000BF012081E7206800689A
:1086D00040F48060216808602068006840F4807081
:1086E0002168086000BF002084F83C0000BF2068BB
:1086F000406840F4E06021684860002068E702209C
:1087000066E72DE9F04104460D46164694F83D0013
:10871000202877D105B116B90120BDE8F08100BF4E
:1087200094F83C00012801D10220F6E7012084F8EA
:108730003C0000BF2068006800F0010028B92068F4
:10874000006840F00100216808602068006820F49B
:10875000006021680860212084F83D00202084F812
:108760003E000020206465626685608D2085194882
:10877000E0621948616B88621848616B08630020E9
:10878000616BC862616B4863238DD4F800C00CF143
:108790001002616A606BFDF7CAFD074607BB2068DF
:1087A000006840F480602168086000BF002084F801
:1087B0003C0000BF2068406840F440702168486079
:1087C0002068406840F40060216848600020A4E709
:1087D000200300200000FFFFA7820008638200083A
:1087E000202084F83D00002084F83E00206C40F0FA
:1087F0001000206400BF002084F83C0000BF01206E
:108800008BE7FFE7022088E72DE9F04104460D469B
:10881000164694F83D0020286ED105B116B9012006
:10882000BDE8F08100BF94F83C00012801D102208E
:10883000F6E7012084F83C0000BF2068006800F0E3
:10884000010028B92068006840F001002168086034
:108850002068006820F4006021680860222084F805
:108860003D00202084F83E0000202064656266857B
:10887000608D2085F748E062F748A16B8862F74871
:10888000A16B08630020A16BC862A16B4863238DB4
:10889000D4F800C00CF11001626AA06BFDF747FD2F
:1088A0000746C7B92068006840F480602168086006
:1088B00000BF002084F83C0000BF2068406840F4FE
:1088C0004070216848602068406840F4006021687A
:1088D00048600020A4E7202084F83D00002084F8B0
:1088E0003E00206C40F01000206400BF002084F89F
:1088F0003C0000BF012093E7022091E72DE9F843F7
:108900000446884615469946DDE9086720680068F0
:1089100040F4807021680860334600224FF0011156
:1089200020460097FEF7C8FD10B10120BDE8F8838E
:1089300008F0FE00216808613B463246C8492046DF
:10894000FEF758FD08B10120F0E700BF00200090BD
:1089500020684069009020688069009000BF00BFD7
:108960003A4631462046FEF717FD50B1206C0428E8
:1089700005D12068006840F400702168086001207B
:10898000D4E7B9F1010F03D1E8B22168086117E01B
:10899000C5F30720216808613A4631462046FEF7B4
:1089A000FBFC50B1206C042805D12068006840F41D
:1089B0000070216808600120B8E7E8B2216808610A
:1089C0000020B3E72DE9FC5F04460F469046994628
:1089D000DDE90CAB0E9EFBF70BFC054694F83D0061
:1089E00020287DD1192301229E4920460095FEF7BB
:1089F00063FD10B10220BDE8FC9F00BF94F83C006D
:108A0000012801D10220F6E7012084F83C0000BFD4
:108A10002068006800F0010028B92068006840F074
:108A20000100216808602068006820F40060216867
:108A30000860212084F83D00402084F83E0000209A
:108A40002064C4F824A0A4F82AB0608D2085814851
:108A5000E0624B46424639462046CDE90065FFF7C5
:108A60004DFF08B10120C6E731E02A4631462046D5
:108A7000FEF792FC50B1206C042805D120680068F4
:108A800040F40070216808600120B4E7606A007853
:108A900021680861606A401C6062208D401E20854C
:108AA000608D401E608520684069C0F3800070B111
:108AB000208D60B1606A007821680861606A401C9E
:108AC0006062208D401E2085608D401E6085208D57
:108AD0000028CAD12A4631462046FEF72FFC00E086
:108AE0001CE050B1206C042805D12068006840F4D7
:108AF00000702168086001207DE72068006840F46C
:108B0000007021680860202084F83D00002084F86F
:108B10003E0000BF84F83C0000BF6CE702206AE71B
:108B20002DE9F84304460F4615469946DDE90886C7
:108B30002068006840F48060216808602068006850
:108B400040F4807021680860434600224FF0011114
:108B500020460096FEF7B0FC10B10120BDE8F88376
:108B600007F0FE0021680861334642463C49204632
:108B7000FEF740FC08B10120F0E700BF00200090A4
:108B800020684069009020688069009000BF00BFA5
:108B9000324641462046FEF7FFFB50B1206C0428C8
:108BA00005D12068006840F4007021680860012049
:108BB000D4E7B9F1010F03D1E8B22168086117E0E9
:108BC000C5F3072021680861324641462046FEF77A
:108BD000E3FB50B1206C042805D12068006840F404
:108BE0000070216808600120B8E7E8B221680861D8
:108BF000324641462046FEF7CFFB50B1206C042898
:108C000005D12068006840F40070216808600120E8
:108C1000A4E72068006840F480702168086043463B
:108C200000224FF0011120460096FEF745FC08B1E6
:108C3000012093E7F8B240F0010021680861334653
:108C4000424607492046FEF7D5FB08B1012085E7DB
:108C5000002083E70000FFFFA7820008638200086E
:108C600002000100020010002DE9FC5F04460F46DF
:108C700090469946DDE90CAB0E9EFBF7B9FA054626
:108C800094F83D00202872D119230122FE49204684
:108C90000095FEF711FC10B10220BDE8FC9F00BF5B
:108CA00094F83C00012801D10220F6E7012084F865
:108CB0003C0000BF2068006800F0010028B920686F
:108CC000006840F00100216808602068006820F416
:108CD000006021680860222084F83D00402084F86C
:108CE0003E0000202064C4F824A0A4F82AB0608DBF
:108CF0002085E648E0624B46424639462046CDE9AB
:108D00000065FFF70DFF08B10120C6E7208D88B987
:108D100000BF0020019020684069019020688069B0
:108D2000019000BF00BF2068006840F40070216817
:108D300008604BE0208D01281AD12068006820F4DB
:108D400080602168086072B600BF00200190206832
:108D50004069019020688069019000BF00BF2068D1
:108D6000006840F400702168086062B62EE0FBE005
:108D7000208D022819D12068006840F40060216825
:108D8000086072B600BF0020019020684069019021
:108D900020688069019000BF00BF2068006820F44F
:108DA00080602168086062B610E02068006840F4C6
:108DB00080602168086000BF002001902068406941
:108DC000019020688069019000BF00BFBDE0208D48
:108DD000032870D8208D012815D12A463146204617
:108DE000FEF7BCFC08B1012057E720680069616A02
:108DF0000870606A401C6062208D401E2085608D76
:108E0000401E6085A1E0208D02282CD1334600222F
:108E10009F4920460095FEF74FFB08B101203CE733
:108E200072B62068006840F400702168086020680D
:108E30000069616A0870606A401C6062208D401E93
:108E40002085608D401E608562B620680069616A79
:108E50000870606A401C6062208D401E2085608D15
:108E6000401E608571E03346002289492046009506
:108E7000FEF722FB08B101200FE72068006820F40C
:108E800080602168086072B620680069616A0870B5
:108E9000606A401C6062208D401E2085608D401EEF
:108EA0006085334600227A4920460095FEF704FB90
:108EB00010B10120F1E621E02068006840F4007064
:108EC0002168086020680069616A0870606A401C57
:108ED0006062208D401E2085608D401E608562B6D8
:108EE00020680069616A0870606A401C6062208DB9
:108EF000401E2085608D401E608526E02A46314652
:108F00002046FEF72BFC08B10120C6E62068006968
:108F1000616A0870606A401C6062208D401E208576
:108F2000608D401E608520684069C0F3800060B19C
:108F300020680069616A0870606A401C6062208D68
:108F4000401E2085608D401E6085208D00287FF4A6
:108F50003EAF202084F83D00002084F83E0000BF92
:108F600084F83C0000BF98E6022096E6F8B5044677
:108F7000DDE906560020009094F83D0020286FD1CE
:108F8000444800681927B0FBF7F04FF47A77B0FB3C
:108F9000F7F000EBC00707EB0010009000BF00984F
:108FA000401E0090009890B900202063202084F893
:108FB0003D00002084F83E00206C40F0200020643A
:108FC00000BF002084F83C0000BF0120F8BD2068ED
:108FD0008069C0F340000028E1D100BF94F83C0054
:108FE000012801D10220F1E7012084F83C0000BFF4
:108FF0002068006800F0010028B92068006840F08F
:109000000100276838602068006820F40060276845
:109010003860212084F83D00402084F83E00002084
:10902000206465626685608D20851848E062616411
:10903000A264E364002020652068006840F480702A
:109040002768386000BF002084F83C0000BF20681B
:10905000406840F4E060276878600020B6E7FFE7EA
:109060000220B3E7F8B50446DDE90656002000907B
:1090700094F83D0020287DD1064800681927B0FBF0
:10908000F7F04FF47A7707E0020010000000FFFFCE
:109090000400010020030020B0FBF7F000EBC00744
:1090A00007EB0010009000BF0098401E0090009851
:1090B00090B900202063202084F83D00002084F82F
:1090C0003E00206C40F02000206400BF002084F8A7
:1090D0003C0000BF0120F8BD20688069C0F340005B
:1090E0000028E1D100BF94F83C00012801D1022002
:1090F000F1E7012084F83C0000BF2068006800F020
:10910000010028B92068006840F001002768386035
:109110002068006820F4006027683860222084F806
:109120003D00402084F83E00002020646562668592
:10913000608D2085F848E0626164A264E3640020E9
:1091400020652068006840F48060276838602068E7
:10915000006840F480702768386000BF002084F801
:109160003C0000BF208D38B12068406840F4E060CA
:10917000276800E002E078600020ACE70220AAE760
:109180002DE9FE4F04460E4617469B46DDE90C8945
:1091900000200290FBF72CF8824694F83D0020282E
:1091A0007ED1DE4800681921B0FBF1F04FF47A71EE
:1091B000B0FBF1F000EBC00101EB0010029000BF2A
:1091C0000298401E0290029898B900202063202047
:1091D00084F83D00002084F83E00206C40F0200020
:1091E000206400BF002084F83C0000BF0120BDE8DF
:1091F000FE8F20688069C0F340000028E0D100BFE6
:1092000094F83C00012801D10220F0E7012084F805
:109210003C0000BF2068006800F0010028B9206809
:10922000006840F00100216808602068006820F4B0
:10923000006021680860212084F83D00402084F807
:109240003E0000202064C4F82480A4F82A90608D99
:109250002085B148E062208D002851D0B048616B74
:109260008862B048616B08630020616BC862616B03
:109270004863238DD4F800C00CF11002616A606B62
:10928000FDF755F8054655BB23205B463A46314667
:10929000CDE9000A2046FFF731FB10B10120A6E717
:1092A0003FE000BF002001902068406901902068E5
:1092B0008069019000BF00BF00BF002084F83C001F
:1092C00000BF2068406840F48070216848602068D2
:1092D000406840F4006021684860002087E7202053
:1092E00084F83D00002084F83E00206C40F010001F
:1092F000206400BF002084F83C0000BF012076E716
:10930000202084F83D00002084F83E00206C40F0CE
:109310004000206400BF002084F83C0000BF012012
:1093200065E7022063E72DE9FE4F04460F469046AD
:109330009B46DDE90C9AFAF75BFF06460020029097
:1093400094F83D0020287DD1744800681921B0FBB5
:10935000F1F04FF47A71B0FBF1F000EBC00101EBDA
:109360000010029000BF0298401E0290029898B927
:1093700000202063202084F83D00002084F83E0077
:10938000206C40F02000206400BF002084F83C00E6
:1093900000BF0120BDE8FE8F20688069C0F3400057
:1093A0000028E0D100BF94F83C00012801D1022040
:1093B000F0E7012084F83C0000BF2068006800F05E
:1093C000010028B92068006840F0010021680860A9
:1093D0002068006820F4006021680860222084F87A
:1093E0003D00402084F83E0000202064C4F8249012
:1093F000A4F82AA0608D20854748E062208D0028CF
:1094000062D04748A16B88624648A16B0863002080
:10941000A16BC862A16B4863238DD4F800C00CF126
:109420001001626AA06BFCF782FF0546D5BB2320C2
:109430005B4642463946CDE900062046FFF770FB01
:1094400018B100E070E00120A4E7208D012806D1CA
:109450002068006820F480602168086005E02068CA
:10946000406840F480502168486000BF00200190AF
:1094700020684069019020688069019000BF00BFAA
:1094800000BF002084F83C0000BF2068406840F422
:109490008070216848602068406840F4006021685E
:1094A000486036E0FFE7202084F83D00002084F883
:1094B0003E00206C40F01000206400BF002084F8C3
:1094C0003C0000BF012065E723205B464246394649
:1094D000CDE900062046FFF723FB08B1012059E73C
:1094E00000BF0020019020684069019020688069D9
:1094F000019000BF00BF2068006840F40070216840
:109500000860202084F83D0000BF002084F83C0063
:1095100000BF00203EE700000000FFFF2003002006
:10952000A782000863820008022033E72DE9F84F84
:1095300004460F4690461E46FAF75AFE05464FF07F
:10954000010994F83D0020287ED119230122FE490B
:1095500020460095FDF7B0FF10B10220BDE8F88F5E
:1095600000BF94F83C00012801D10220F6E7012059
:1095700084F83C0000BF2068006800F0010028B9B2
:109580002068006840F001002168086020680068D9
:1095900020F4006021680860242084F83D00002049
:1095A0002064EA48E06200BF2068006840F48070F0
:1095B00021680860334600224FF0011120460095D3
:1095C000FDF77AFF08B10120C8E707F0FE00216827
:1095D0000861FAF70DFE054620684069C0F3400AAD
:1095E00020684069C0F3802B10E0FAF701FE401BB1
:1095F000B04200D816B9A02084F83D002068406928
:10960000C0F3400A20684069C0F3802B94F83D0005
:10961000A02805D0BAF1000F02D1BBF1000FE4D0B1
:10962000202084F83D0020684069C0F3400028B342
:109630002068006840F400702168086000BF0020C6
:1096400000902068406900E03BE00090206880695D
:10965000009000BF00BF19230122BB49204600959E
:10966000FDF72AFF08B1012078E7202084F83D00AB
:1096700000BF002084F83C0000BF6FE7206800684E
:1096800040F40070216808606FF4806021684861D0
:1096900019230122AC4920460095FDF70DFF08B1C2
:1096A00001205BE709F10109C145FFF47DAF2020EE
:1096B00084F83D0000BF002084F83C0000BF01207A
:1096C0004CE702204AE77CB50446069D0020019045
:1096D000009094F83D0020287ED1082D01D0012D66
:1096E0002CD19B4800681926B0FBF6F04FF47A762F
:1096F000B0FBF6F000EBC00606EB0010009000BFD8
:109700000098401E0090009890B90020206320200F
:1097100084F83D00002084F83E00206C40F02000DA
:10972000206400BF002084F83C0000BF01207CBD05
:1097300020688069C0F340000028E1D100BF94F8A0
:109740003C00012801D10220F1E7012084F83C000F
:1097500000BF2068006800F0010028B92068006898
:1097600040F00100266830602068006820F4006046
:1097700026683060212084F83D00102084F83E00E7
:109780000020206462626385608D2085E5626164EB
:10979000206B0190019811280AD1B5F52A0F02D04B
:1097A000B5F12A4F01D1012000E00020012805D1A8
:1097B0002068006840F480702668306000BF002098
:1097C00084F83C0000BF2068406840F4E0602668F0
:1097D00070600020ABE7FFE70220A8E72DE9FC4717
:1097E00004460F46904699460A9D0020019000903D
:1097F00094F83D0020287DD1082D01D0012D2DD1D8
:10980000534800681921B0FBF1F04FF47A71B0FBB6
:10981000F1F000EBC00101EB0010009000BF0098D8
:10982000401E0090009898B900202063202084F802
:109830003D00002084F83E00206C40F020002064B1
:1098400000BF002084F83C0000BF0120BDE8FC8779
:1098500020688069C0F340000028E0D100BF94F880
:109860003C00012801D10220F0E7012084F83C00EF
:1098700000BF2068006800F0010028B92068006877
:1098800040F00100216808602068006820F4006052
:1098900021680860212084F83D00102084F83E00F3
:1098A00000202064C4F82480A4F82A90608D2085CC
:1098B000E5626764206B0190208D002866D0254802
:1098C000616B88622448616B08630020616BC86229
:1098D000616B4863238DD4F800C00CF11002616AFB
:1098E000606BFCF724FD0646C6BB2068006840F4A8
:1098F000806000E071E021680860019811280AD1B9
:10990000B5F52A0F02D0B5F12A4F01D1012000E0B0
:109910000020012805D12068006840F4807021688B
:10992000086000BF002084F83C0000BF042D03D075
:10993000202D01D0102D05D12068406840F4006032
:109940002168486020680AE0020010000000FFFF64
:1099500020030020A78200086382000805E0406819
:1099600040F440702168486035E0202084F83D00D4
:10997000002084F83E00206C40F01000206400BFFE
:10998000002084F83C0000BF01205FE720680068E9
:1099900040F4806021680860019811280AD1B5F56B
:1099A0002A0F02D0B5F12A4F01D1012000E000209A
:1099B000012805D12068006840F4807021680860A3
:1099C00000BF002084F83C0000BF2068406840F4DD
:1099D000E06021684860002038E7022036E7FCB5E7
:1099E0000446079D0020019000904FF4E06694F833
:1099F0003D00202875D1082D01D0012D2CD1FE4825
:109A000000681927B0FBF7F04FF47A77B0FBF7F056
:109A100000EBC00707EB0010009000BF0098401E4D
:109A20000090009890B900202063202084F83D0029
:109A3000002084F83E00206C40F02000206400BF2D
:109A4000002084F83C0000BF0120FCBD2068806934
:109A5000C0F340000028E1D100BF94F83C00012889
:109A600001D10220F1E7012084F83C0000BF20680A
:109A7000006800F0010028B92068006840F001008B
:109A8000276838602068006820F400602768386024
:109A9000222084F83D00102084F83E00002020643D
:109AA00062626385608D2085E5626164206B019050
:109AB000608D02281DD1202D01D0102D19D10198C3
:109AC00012280FD12068006820F480602768386071
:109AD0002068006840F400602768386026F48066DB
